:1000000031C100000C94FD080C9428090C9453098C
:100010000C947E090C94A9090C94D4090C94FF0942
:100020000C942A0A50C100004EC100004CC10000CF
:100030004AC1000048C1000046C1000044C10000A0
:1000400042C1000040C100003EC100003CC10000B0
:100050003AC1000038C1000036C100000C94550AB6
:1000600032C100000C94010E0C94370E2CC100001C
:100070002AC1000028C1000026C1000024C10000E0
:1000800022C1000020C100001EC100001CC10000F0
:100090001AC1000018C1000016C1000014C1000000
:1000A00012C1000010C100000EC100000CC1000010
:1000B0000AC1000008C1000006C1000004C1000020
:1000C00002C1000000C10000FEC00000FCC0000032
:1000D000FAC00000F8C00000F6C00000F4C0000044
:1000E000F2C00000D708A108A908B508C208E308B3
:1000F000F008310B360B3B0B450B4F0BC80B590B64
:10010000610B690B730B7D0B870B960BA00BC80B58
:10011000AA0BB40BBE0BE90BEC0BDB0BDF0BE50BF7
:10012000230CF00BF40BFA0BFE0B020C080C0C0C5E
:10013000100C230C160C1A0C1E0C05A84CCDB2D4B6
:100140004EB93836A9020C50B9918688083CA6AA47
:10015000AA2ABE000000803F00000A0B02090C0D15
:100160000E0807030401000000000000000000006A
:10017000000000000000000000000000000000007F
:10018000000000001211100000000000000000003C
:10019000000000000000000000000000000001025C
:1001A0001020200808102040102040800201020189
:1001B0000804020101020408102040808040201041
:1001C000080402018004020180402010080402019A
:1001D0000804020101020408102040800102040802
:1001E00010204080050505050705080808080202DB
:1001F00002020A0A080804040404010101010101C1
:1002000001010303030303030303040707070C0CA3
:100210000C0C0C0C0C0C020202020606060606066A
:1002200006060B0B0B0B0B0B0B0B00002200250023
:1002300028002B002E0031003400020100000501CF
:1002400008010B0100002100240027002A002D00D6
:100250003000330001010000040107010A01090612
:100260008508690E11241FBECFEFD1E2DEBFCDBFDE
:1002700000E00CBF12E0A0E0B2E0ECE9F6E200E042
:100280000BBF02C007900D92AA33B107D9F725E042
:10029000AAE3B2E001C01D92A233B207E1F712E077
:1002A000C4E6D2E000E006C022970109FE010BBFC0
:1002B0000E944813CE35D10780E00807A9F70E94B5
:1002C00070100C944C139CCEFC0110820895CF92B8
:1002D000DF92EF92FF92CF93DF93EC016A017B01F3
:1002E0008B859C85AD85BE859A01AB01281B390B9A
:1002F0004A0B5B0BDA01C90149815A816B817C8110
:1003000084179507A607B707D8F08881813019F0C0
:10031000823029F00CC0E985FA85199508C061E0A2
:100320008885811160E068878F810E945D0CCB8693
:10033000DC86ED86FE868F8598890196988B8F875F
:100340008D819E8197FD06C02F8538892817390732
:100350000CF01882DF91CF91FF90EF90DF90CF905B
:1003600008950F931F93CF93DF93EC018C010655F3
:100370001F4FCE01A9DF6196C017D107D1F7DF91DA
:10038000CF911F910F910895CF92DF92EF92FF923C
:100390001F93CF93DF936A017B01EC011AE0888100
:1003A000882321F0B701A601CE0191DF115061969B
:1003B0001111F5CFDF91CF911F91FF90EF90DF905A
:1003C000CF900895CF93DF93EC010E949F0AAB0179
:1003D000BC01CE01DF91CF91D7CF20E0FC0130816D
:1003E000332331F02F5F41962A30C1F78FEF089504
:1003F000822F0895CF92DF92EF92FF920F931F9377
:10040000CF93DF9300D01F92CDB7DEB76C01790197
:1004100049835A836B837C83E0DF282F49815A818B
:100420006B817C818F3FD9F081E12802C00CD11C07
:10043000112481E0F60180834183528363837483B6
:1004400016830583F286E18629830E949F0AF601BE
:100450006387748785879687108A17862981822FFC
:100460000F900F900F900F90DF91CF911F910F91F0
:10047000FF90EF90DF90CF9008950F931F930FEFB1
:100480001FEFB8DF1F910F9108958CB185FB88276E
:1004900080F980931F0380911F03882361F080916E
:1004A0001A0390911B03A0911C03B0911D030196A8
:1004B000A11DB11D0BC080911A0390911B03A09147
:1004C0001C03B0911D030197A109B10980931A0380
:1004D00090931B03A0931C03B0931D0380911A03F8
:1004E00090911B03A0911C03B0911D038834964288
:1004F000A105B1056CF080911A0390911B03A091A6
:100500001C03B0911D0388549642A109B1090EC085
:1005100080911A0390911B03A0911C03B0911D03BD
:10052000B7FF0CC087E496E2A0E0B0E080931A0326
:1005300090931B03A0931C03B0931D03089589B1EE
:100540008695817080931E0380911E03882361F03D
:100550008091160390911703A0911803B09119038D
:100560000196A11DB11D0BC0809116039091170338
:10057000A0911803B09119030197A109B1098093C3
:10058000160390931703A0931803B0931903809157
:10059000160390911703A0911803B09119038834A2
:1005A0009642A105B1056CF0809116039091170356
:1005B000A0911803B091190388549642A109B1097A
:1005C0000EC08091160390911703A0911803B0916B
:1005D0001903B7FF0CC087E496E2A0E0B0E0809377
:1005E000160390931703A0931803B093190308956B
:1005F0001092540210925502109256021092570215
:100600001092500210925102109252021092530214
:1006100010925C0210925D0210925E0210925F02D4
:10062000109258021092590210925A0210925B02D4
:1006300080E090E0A0E0B0E48093680290936902CB
:10064000A0936A02B0936B0227EC33E042E050E0E3
:1006500060E070E08CE692E010DF992787FD9095CE
:1006600090934F0280934E0210921603109217033C
:10067000109218031092190310921A0310921B0380
:1006800010921C0310921D03109246021092470212
:10069000109248021092490210924A0210924B02A4
:1006A00010924C0210924D0210924202109243029C
:1006B000109244021092450280E090E0A8E0B2E47B
:1006C00080933E0290933F02A0934002B093410278
:1006D00080E090E0AAEAB3E480933A0290933B0270
:1006E000A0933C02B0933D0260E082E00E94240CA3
:1006F00060E083E00E94240C60E085E10E94240C0D
:1007000060E084E10E94240C43E050E065E472E084
:1007100080E002D543E050E06FE972E082E0FCC483
:100720008CE692E04FCE60911A0370911B0380918A
:100730001C0390911D030E9482119B01AC010E9439
:100740007C102AED3FE049E450E40E946F1220E063
:1007500030E249E156E40C94E71060911603709181
:10076000170380911803909119030E9482119B0135
:10077000AC010E947C102AED3FE049E450E40E9465
:100780006F1220E030E249E156E40C94E7104F92FA
:100790005F926F927F928F929F92AF92BF92CF9211
:1007A000DF92EF92FF92CF93DF93CDB7DEB76497DE
:1007B0000FB6F894DEBF0FBECDBFCFDF6D837E8353
:1007C0008F839887B0DF69877A878B879C87209192
:1007D00054023091550240915602509157026D815A
:1007E0007E818F8198850E947B106B017C01209116
:1007F000500230915102409152025091530269854A
:100800007A858B859C850E947B1020E030E040E05B
:100810005FE30E946F12209158023091590240917B
:100820005A0250915B020E947C104B015C01609364
:10083000600270936102809362029093630220E0F1
:1008400030E040E05FE3C701B6010E946F122091E3
:100850005C0230915D0240915E0250915F020E9405
:100860007C106B017C01609364027093650280933D
:100870006602909367022AED3FE049E450E4C50127
:10088000B4010E946B12181684F42AED3FE049EC83
:1008900050E4C501B4010E947B1060936002709324
:1008A0006102809362029093630280906002909054
:1008B0006102A0906202B09063022AED3FE049E439
:1008C00050ECC501B4010E94E01087FF10C02AED72
:1008D0003FE049EC50E4C501B4010E947C106093F4
:1008E00060027093610280936202909363022AED2A
:1008F0003FE049E450E4C701B6010E946B121816AC
:1009000084F42AED3FE049EC50E4C701B6010E94AF
:100910007B106093640270936502809366029093EB
:100920006702C0906402D0906502E0906602F09089
:1009300067022AED3FE049E450ECC701B6010E948E
:10094000E01087FF10C02AED3FE049EC50E4C701FA
:10095000B6010E947C1060936402709365028093DC
:1009600066029093670280903E0290903F02A090B2
:100970004002B0904102C0904202D0904302E09009
:100980004402F0904502C701B6010E94E410698B51
:100990007A8B8B8B9C8B40906402509065026090A8
:1009A0006602709067028091600290916102A0914E
:1009B0006202B091630289839A83AB83BC839C01FA
:1009C000AD01C301B2010E947C106D877E878F87C5
:1009D000988B29893A894B895C89C501B4010E94A9
:1009E0006F1220E030E040E05FE30E946F122D853F
:1009F0003E854F8558890E946F129B01AC01609122
:100A00004A0270914B0280914C0290914D020E94DB
:100A10007C1060934A0270934B0280934C02909337
:100A20004D02C701B6010E94D2129B01AC01C50163
:100A3000B4010E946F1220E030E040E05FE30E94CA
:100A40006F122D853E854F8558890E946F129B013C
:100A5000AC016091460270914702809148029091EA
:100A600049020E947C106093460270934702809373
:100A700048029093490220913A0230913B02409102
:100A80003C0250913D02C501B4010E94E7104B01A8
:100A90005C0129813A814B815C81C301B2010E94D2
:100AA0007B109B01AC01C501B4010E946F129B0138
:100AB000AC01C701B6010E947C106B017C012AEDDC
:100AC0003FE049EC50E40E946B1287FF09C0C092DE
:100AD0004202D0924302E0924402F092450210C0DA
:100AE0002AED3FE049EC50E4C701B6010E947B10BB
:100AF00060934202709343028093440290934502B4
:100B0000C0904202D0904302E0904402F09045022F
:100B100020E030E0A901C701B6010E94E01087FF84
:100B200010C02AED3FE049EC50E4C701B6010E9435
:100B30007C1060934202709343028093440290932E
:100B400045028090680290906902A0906A02B0907D
:100B50006B0220E030E04AE754E469817A818B81BE
:100B60009C810E946F12A50194010E94E7106B0105
:100B70007C016093600270936102809362029093A3
:100B8000630220E030E04AE754E4C301B2010E946E
:100B90006F12A50194010E94E710609364027093A4
:100BA000650280936602909367028D819E81AF817A
:100BB000B8858093540290935502A0935602B09347
:100BC000570289859A85AB85BC85809350029093A6
:100BD0005102A0935202B093530222E030E0B701D9
:100BE000A60185E994E064960FB6F894DEBF0FBEC7
:100BF000CDBFDF91CF91FF90EF90DF90CF90BF906E
:100C0000AF909F908F907F906F905F904F900C94DB
:100C10005F108CE692E0A5CB61E08091000214D6D3
:100C200061E08091040210D661E0809102020CD64E
:100C300061E08091060208C6CF93DF93EC0197FD37
:100C400007C0BC0180910002E8D460E070E009C0F8
:100C500060E070E080910002E0D4662777276C1B8B
:100C60007D0B80910202DF91CF91D7C4CF93DF93A8
:100C7000EC0160E070E097FD07C080910602CDD4E2
:100C8000BE018091040209C080910402C6D4662787
:100C900077276C1B7D0B80910602DF91CF91BDC43D
:100CA0008F929F92AF92BF92CF92DF92EF92FF927C
:100CB00020E030E040E85FE36091880470918904AF
:100CC00080918A0490918B040E947C104B015C01FE
:100CD000609388047093890480938A0490938B04B2
:100CE00020E030E040E85FE3609184047091850487
:100CF00080918604909187040E947C106B017C0196
:100D00006093840470938504809386049093870491
:100D100020E030E040E850E4C501B4010E946B12CD
:100D2000181664F4B7FAB094B7F8B09480928804B7
:100D300090928904A0928A04B0928B0420E030E063
:100D400040E850E4C701B6010E946B12181664F423
:100D5000F7FAF094F7F8F094C0928404D0928504E6
:100D6000E0928604F0928704FF90EF90DF90CF909E
:100D7000BF90AF909F908F9008954F925F926F9227
:100D80007F928F929F92AF92BF92CF92DF92EF921B
:100D9000FF92CF93DF9300D01F92CDB7DEB72091A3
:100DA00084043091850440918604509187046091B9
:100DB00064027091650280916602909167020E94C0
:100DC0007B102B013C0120918804309189044091D3
:100DD0008A0450918B04609160027091610280914D
:100DE0006202909163020E947B1069837A838B83F5
:100DF0009C8320E030E042EE50ECC301B2010E943F
:100E00006F12209128033091290340912A035091B9
:100E10002B030E947C104B015C01609328037093AC
:100E2000290380932A0390932B0327E635ED41E0B5
:100E300051EC69817A818B819C810E946F12209193
:100E40002C0330912D0340912E0350912F030E94CB
:100E50007C106B017C0160932C0370932D038093B5
:100E60002E0390932F0320E030E04FE753E4C501B9
:100E7000B4010E946B1218162CF480E090E0AFE7EA
:100E8000B3E40EC020E030E04FE753ECC501B401FD
:100E90000E94E01087FF0CC080E090E0AFE7B3EC69
:100EA0008093280390932903A0932A03B0932B03E4
:100EB00020E030E04FE753E4C701B6010E946B1217
:100EC00018162CF480E090E0AFE7B3E40EC020E009
:100ED00030E04FE753ECC701B6010E94E01087FFF6
:100EE0000CC080E090E0AFE7B3EC80932C039093CC
:100EF0002D03A0932E03B0932F0320EC3CEE40EA89
:100F000050ECC301B2010E946F122091280330916E
:100F1000290340912A0350912B030E947C104B011E
:100F20005C016093200370932103809322039093CC
:100F300023032BE935E543EC50EC69817A818B8101
:100F40009C810E946F1220912C0330912D034091BF
:100F50002E0350912F030E947C106B017C01609343
:100F6000240370932503809326039093270320E0A6
:100F700030E04FE753E4C501B4010E946B1218162C
:100F80002CF480E090E0AFE7B3E40EC020E030E066
:100F90004FE753ECC501B4010E94E01087FF0CC07D
:100FA00080E090E0AFE7B3EC8093200390932103BF
:100FB000A0932203B093230320E030E04FE753E4F3
:100FC000C701B6010E946B1218162CF480E090E065
:100FD000AFE7B3E40EC020E030E04FE753ECC701C9
:100FE000B6010E94E01087FF0CC080E090E0AFE700
:100FF000B3EC8093240390932503A0932603B0932E
:101000002703609120037091210380912203909126
:1010100023030E944F11CB010FDE609124037091D6
:10102000250380912603909127030E944F11CB0145
:101030000F900F900F900F90DF91CF91FF90EF9056
:10104000DF90CF90BF90AF909F908F907F906F90E8
:101050005F904F900BCE26E040E052EC61E070E0F4
:1010600085E994E06ED5C4DAD7DD80E090E0FEDD5E
:1010700080E090E0E1DD10922C0310922D0310929D
:101080002E0310922F03109228031092290310921E
:101090002A0310922B031092200310922103109226
:1010A000220310922303109224031092250310921E
:1010B00026031092270380E090E0A0E8BFE380932E
:1010C000880490938904A0938A04B0938B0480933E
:1010D000840490938504A0938604B09387042DEB39
:1010E00036E045E050E060E070E08AED93E0C5D97D
:1010F00020E536E048EB5BE060E070E080E393E001
:10110000BCC90EDB8AED93E05DC98AED93E029D975
:1011100080E393E026C90895883008F06DC0E82F79
:10112000F0E0EE0FFF1FE85FFD4F7183608390E0FA
:10113000FC013197E730F10590F5EE58FF4F0C9424
:101140004213809169008C7F842B80936900E89A18
:10115000089580916900440F551F440F551F837FE8
:10116000842B80936900E99A08958091690074E066
:10117000440F551F7A95E1F78F7C842B809369008B
:10118000EA9A08958091690066E0440F551F6A95B8
:10119000E1F78F73842B80936900EB9A0895809117
:1011A0006A008C7F842B80936A00EC9A089580916A
:1011B0006A00440F551F440F551F837F842B809373
:1011C0006A00ED9A089580916A0024E0440F551F4B
:1011D0002A95E1F78F7C842B80936A00EE9A08951C
:1011E00080916A0096E0440F551F9A95E1F78F733E
:1011F000842B80936A00EF9A08951F920F920FB686
:101200000F9211240BB60F922F933F934F935F933E
:101210006F937F938F939F93AF93BF93EF93FF93BE
:10122000E0910C02F0910D021995FF91EF91BF91A1
:10123000AF919F918F917F916F915F914F913F916E
:101240002F910F900BBE0F900FBE0F901F9018950F
:101250001F920F920FB60F9211240BB60F922F937D
:101260003F934F935F936F937F938F939F93AF932E
:10127000BF93EF93FF93E0910E02F0910F02199547
:10128000FF91EF91BF91AF919F918F917F916F915E
:101290005F914F913F912F910F900BBE0F900FBE1A
:1012A0000F901F9018951F920F920FB60F92112456
:1012B0000BB60F922F933F934F935F936F937F9350
:1012C0008F939F93AF93BF93EF93FF93E09110029F
:1012D000F09111021995FF91EF91BF91AF919F91FC
:1012E0008F917F916F915F914F913F912F910F90CF
:1012F0000BBE0F900FBE0F901F9018951F920F926C
:101300000FB60F9211240BB60F922F933F934F936A
:101310005F936F937F938F939F93AF93BF93EF935D
:10132000FF93E0911202F09113021995FF91EF9152
:10133000BF91AF919F918F917F916F915F914F91ED
:101340003F912F910F900BBE0F900FBE0F901F90EB
:1013500018951F920F920FB60F9211240BB60F9291
:101360002F933F934F935F936F937F938F939F93AD
:10137000AF93BF93EF93FF93E0910802F0910902BE
:101380001995FF91EF91BF91AF919F918F917F91AF
:101390006F915F914F913F912F910F900BBE0F90E6
:1013A0000FBE0F901F9018951F920F920FB60F92BD
:1013B00011240BB60F922F933F934F935F936F932C
:1013C0007F938F939F93AF93BF93EF93FF93E0919E
:1013D0000A02F0910B021995FF91EF91BF91AF9125
:1013E0009F918F917F916F915F914F913F912F913D
:1013F0000F900BBE0F900FBE0F901F9018951F926D
:101400000F920FB60F9211240BB60F922F933F93AA
:101410004F935F936F937F938F939F93AF93BF93FC
:10142000EF93FF93E0911402F09115021995FF914B
:10143000EF91BF91AF919F918F917F916F915F914C
:101440004F913F912F910F900BBE0F900FBE0F90B9
:101450001F9018951F920F920FB60F9211240BB682
:101460000F922F933F934F935F936F937F938F933D
:101470009F93AF93BF93EF93FF93E0911602F09188
:1014800017021995FF91EF91BF91AF919F918F91A5
:101490007F916F915F914F913F912F910F900BBE74
:1014A0000F900FBE0F901F9018951F920F920FB6BE
:1014B0000F9211242F933F938F939F93AF93BF93DA
:1014C00080918D0490918E04A0918F04B09190042E
:1014D00030918C0423E0230F2D3720F40196A11DB9
:1014E000B11D05C026E8230F0296A11DB11D209352
:1014F0008C0480938D0490938E04A0938F04B093FA
:1015000090048091910490919204A0919304B091E1
:1015100094040196A11DB11D8093910490939204AF
:10152000A0939304B0939404BF91AF919F918F9136
:101530003F912F910F900FBE0F901F9018952FB7CE
:10154000F89460918D0470918E0480918F04909135
:1015500090042FBF0895789484B5826084BD84B5CB
:10156000816084BD85B5826085BD85B5816085BD9E
:10157000EEE6F0E0808181608083E1E8F0E01082B7
:10158000808182608083808181608083E0E8F0E0F8
:10159000808181608083E1EBF0E0808184608083E2
:1015A000E0EBF0E0808181608083E1E9F0E0808120
:1015B00082608083808181608083E0E9F0E08081C7
:1015C00081608083E1EAF0E08081826080838081B5
:1015D00081608083E0EAF0E0808181608083E1E2E5
:1015E000F1E0808182608083808181608083E0E29D
:1015F000F1E0808181608083EAE7F0E080818460AF
:10160000808380818260808380818160808380810B
:10161000806880831092C10008951F93CF93DF9359
:10162000182FEB0161E010D1209711F460E004C0A5
:10163000CF3FD10531F461E0812FDF91CF911F9130
:101640003CC1E12FF0E0E85AFE4F449150E0FA012E
:101650003197E231F10508F09BC0E758FF4F0C9439
:10166000421384B5806884BDC7BD97C084B58062CD
:1016700084BDC8BD92C08091800080688093800046
:10168000D0938900C093880088C0809180008062D8
:1016900080938000D0938B00C0938A007EC080919D
:1016A0008000886080938000D0938D00C0938C0070
:1016B00074C08091B00080688093B000C093B30084
:1016C0006CC08091B00080628093B000C093B40081
:1016D00064C080919000806880939000D0939900BE
:1016E000C09398005AC080919000806280939000CF
:1016F000D0939B00C0939A0050C080919000886066
:1017000080939000D0939D00C0939C0046C0809130
:10171000A00080688093A0008091A0008F7B8093C0
:10172000A000D093A900C093A80037C08091A0006A
:1017300080628093A000D093AB00C093AA002DC01C
:101740008091A00088608093A000D093AD00C093EA
:10175000AC0023C080912001806880932001D09349
:101760002901C093280119C08091200180628093D3
:101770002001D0932B01C0932A010FC0809120013A
:10178000886080932001D0932D01C0932C0105C067
:10179000C038D1050CF04FCF49CFDF91CF911F91C9
:1017A000089590E0FC013197E231F10508F04BC05B
:1017B000E557FF4F67C7809180008F7703C0809106
:1017C00080008F7D80938000089580918000877FC6
:1017D000F9CF84B58F7702C084B58F7D84BD08951D
:1017E0008091B0008F7703C08091B0008F7D80938F
:1017F000B0000895809190008F7707C0809190008D
:101800008F7D03C080919000877F80939000089522
:101810008091A0008F7707C08091A0008F7D03C0CA
:101820008091A000877F8093A0000895809120017F
:101830008F7707C0809120018F7D03C080912001A8
:10184000877F809320010895CF93DF9390E0FC0180
:10185000E256FE4F2491FC01EC51FE4F8491882307
:1018600049F190E0880F991FFC01EC5BFD4FA591B9
:10187000B491865D9D4FFC01C591D4919FB76111D4
:1018800008C0F8948C91209582238C9388818223C0
:101890000AC0623051F4F8948C91322F3095832332
:1018A0008C938881822B888304C0F8948C91822B3E
:1018B0008C939FBFDF91CF9108950F931F93CF9388
:1018C000DF931F92CDB7DEB7282F30E0F901E85A39
:1018D000FE4F8491F901E256FE4F1491F901EC514B
:1018E000FE4F04910023C1F0882319F0698359DF6A
:1018F0006981E02FF0E0EE0FFF1FE65DFD4FA5913F
:10190000B4919FB7F8948C91611103C01095812315
:1019100001C0812B8C939FBF0F90DF91CF911F91BE
:101920000F910895FC01818D228D90E0805C9F4F86
:10193000821B91098F7399270895FC01918D828DE7
:10194000981731F0828DE80FF11D858D90E0089594
:101950008FEF9FEF0895FC01918D828D981761F0B4
:10196000828DDF01A80FB11D5D968C91928D9F5FD6
:101970009F73928F90E008958FEF9FEF089580E618
:101980009EE0892B39F080E090E0892B19F098D106
:10199000811125C080E090E0892B41F080E090E04B
:1019A000892B21F00E94000081111CC080E090E092
:1019B000892B41F080E090E0892B21F00E9400000B
:1019C000811113C080E090E0892BA1F080E090E0CD
:1019D000892B81F00E94000081110AC008950E94A5
:1019E0000000D8CF0E940000E1CF0E940000EACFA3
:1019F0000C9400000895FC01848DDF01A80FB11D37
:101A0000A35ABF4F2C91848D90E001968F73992734
:101A1000848FA689B7892C93A089B1898C91806421
:101A20008C93938D848D981306C00288F389E02DE2
:101A300080818F7D80830895CF93DF93EC01888D23
:101A40008823C1F0EA89FB89808185FD05C0A889CA
:101A5000B9898C9186FD0EC00FB607FCF5CF808149
:101A600085FFF2CFA889B9898C9185FFEDCFCE0192
:101A7000C2DFE8CFDF91CF910895CF92DF92FF923E
:101A80000F931F93CF93DF931F92CDB7DEB76C01F7
:101A900081E0D60158968C9358975B969C915B9702
:101AA0005C968C915C97981307C05096ED91FC91D1
:101AB0005197808185FD2DC0F601038D10E00F5FE9
:101AC0001F4F0F731127F02EF601848DF81210C0EE
:101AD0000FB607FCF9CFD6015096ED91FC915197C6
:101AE000808185FFF1CFC601698385DF6981ECCFF5
:101AF000838DE80FF11DE35AFF4F6083D6015B969B
:101B00000C935B975296ED91FC9153978081806284
:101B10000CC0D6015696ED91FC9157976083509674
:101B2000ED91FC91519780818064808381E090E009
:101B30000F90DF91CF911F910F91FF90DF90CF9089
:101B40000895BF92CF92DF92EF92FF92CF93DF93EF
:101B5000EC016A017B01B22EE889F98982E0808379
:101B6000411581EE58076105710599F060E079E053
:101B70008DE390E0A701960163D521503109410919
:101B800051095695479537952795211580E13807D6
:101B900090F0E889F989108260E874E88EE190E0BD
:101BA000A70196014DD5215031094109510956959A
:101BB000479537952795EC85FD853083EE85FF8524
:101BC0002083188EEC89FD89B082EA89FB898081A7
:101BD00080618083EA89FB89808188608083EA89CB
:101BE000FB89808180688083EA89FB8980818F7D81
:101BF0008083DF91CF91FF90EF90DF90CF90BF90E7
:101C000008951F920F920FB60F9211240BB60F92E8
:101C10002F938F939F93EF93FF93E091A504F091FF
:101C2000A6048081E091AB04F091AC0482FD12C067
:101C300090818091AE048F5F8F732091AF048217E3
:101C400051F0E091AE04F0E0EB56FB4F958F80939E
:101C5000AE0401C08081FF91EF919F918F912F91F0
:101C60000F900BBE0F900FBE0F901F9018951F92F4
:101C70000F920FB60F9211240BB60F922F933F9332
:101C80004F935F936F937F938F939F93AF93BF9384
:101C9000EF93FF9385E994E0AEDEFF91EF91BF9162
:101CA000AF919F918F917F916F915F914F913F91F4
:101CB0002F910F900BBE0F900FBE0F901F90189595
:101CC00085E994E02FDE21E0892B09F420E0822FC2
:101CD0000895109298041092970488EE93E0A0E083
:101CE000B0E08093990490939A04A0939B04B093DE
:101CF0009C048CE192E0909396048093950485EC8B
:101D000090E09093A2048093A10484EC90E09093DF
:101D1000A4048093A30480EC90E09093A6048093A5
:101D2000A50481EC90E09093A8048093A70482EC32
:101D300090E09093AA048093A90486EC90E090939D
:101D4000AC048093AB041092AE041092AF041092D6
:101D5000B0041092B1040895CF92DF92EF92FF92F7
:101D60000F931F93CF93DF937C016A01EB0100E097
:101D700010E00C151D0571F06991D701ED91FC91F2
:101D80000190F081E02DC7011995892B19F00F5FA3
:101D90001F4FEFCFC801DF91CF911F910F91FF909F
:101DA000EF90DF90CF9008956115710581F0DB0110
:101DB0000D900020E9F7AD0141505109461B570B2A
:101DC000DC01ED91FC910280F381E02D199480E01B
:101DD00090E00895DC01ED91FC910190F081E02DFF
:101DE000199468E272E0E0CF8F929F92AF92BF9217
:101DF000DF92EF92FF920F931F93CF93DF93CDB7B4
:101E0000DEB7A1970FB6F894DEBF0FBECDBF7C0141
:101E1000F42FD52ECB0119A2223008F42AE08E012E
:101E20000F5D1F4F822E912CA12CB12C6F2F7D2D79
:101E3000A501940105D4F22FD32ECA010150110936
:101E40006A3014F4E0E301C0E7E3E60FD801EC9355
:101E5000232B242B252B51F7B801C701A5DFA19611
:101E60000FB6F894DEBF0FBECDBFDF91CF911F91AB
:101E70000F91FF90EF90DF90BF90AF909F908F9069
:101E80000895CF92DF92EF92FF920F931F93CF931B
:101E9000DF93EC016A017B012115310579F4E881BA
:101EA000F9810190F081E02D642FDF91CF911F9196
:101EB0000F91FF90EF90DF90CF9019942A30310569
:101EC000D9F477FF18C06DE285DF8C0144275527D0
:101ED000BA014C195D096E097F092AE0CE0184DF41
:101EE000800F911FDF91CF911F910F91FF90EF9085
:101EF000DF90CF9008952AE0B701A601CE01DF91CF
:101F0000CF911F910F91FF90EF90DF90CF906CCF0A
:101F10004F925F926F927F928F929F92AF92BF92F9
:101F2000CF92DF92EF92FF920F931F93CF93DF93A5
:101F3000EC016A017B01B22E9A01AB01C701B60127
:101F400037D3882319F06BE272E024C026013701F1
:101F5000E89477F82FEF3FEF4FE75FE7C301B20157
:101F600027D381110CC02FEF3FEF4FE75FE7C3018D
:101F7000B20126D118161CF46FE272E00BC02FEFED
:101F80003FEF4FE75FE4C701B601A5D21816A4F4EE
:101F900063E372E0CE01DF91CF911F910F91FF902B
:101FA000EF90DF90CF90BF90AF909F908F907F90F9
:101FB0006F905F904F90F8CE2FEF3FEF4FE75FECC1
:101FC000C701B601FDD087FDE3CF20E030E0A901D5
:101FD000C701B601F5D087FF09C06DE2CE01FADE78
:101FE0008C01F7FAF094F7F8F09402C000E010E0EA
:101FF000A12C60E070E080E09FE3AB1439F020E0BA
:1020000030E040E251E4E3D0A394F7CF9B01AC0170
:10201000C701B60171D06B017C0146D12B013C0197
:102020006FD19B01AC01C701B60165D06B017C018A
:102030002AE0B301A201CE01D7DE080F191FBB2091
:1020400031F067E372E0CE01AFDE080F191F7B2C81
:10205000772019F120E030E040E251E4C701B601F9
:102060003ED26B017C011BD14B01AA2497FCA094AA
:10207000BA2C2AE030E0B501A401CE0102DF080F3E
:10208000191FC501B4013ED19B01AC01C701B601C6
:1020900032D06B017C017A94DBCFC801DF91CF9104
:1020A0001F910F91FF90EF90DF90CF90BF90AF9076
:1020B0009F908F907F906F905F904F9008950F93B7
:1020C0001F93CF93DF93EC0123DF8C01CE0189DED8
:1020D000800F911FDF91CF911F910F910895089567
:1020E0003ADAFDDF0E942B08CFEBDCE00AD820971C
:1020F000E9F345DCFBCF5058BB27AA270ED0A0C17F
:1021000069D130F06ED120F031F49F3F11F41EF40C
:102110005EC10EF4E095E7FB54C1E92FB3D180F323
:10212000BA17620773078407950718F071F49EF5D4
:10213000CBC10EF4E0950B2EBA2FA02D0B01B901E7
:1021400090010C01CA01A0011124FF27591B99F02D
:10215000593F50F4503E68F11A16F040A22F232F39
:10216000342F4427585FF3CF469537952795A79589
:10217000F0405395C9F77EF41F16BA0B620B730B30
:10218000840BBAF09150A1F0FF0FBB1F661F771FA1
:10219000881FC2F70EC0BA0F621F731F841F48F456
:1021A000879577956795B795F7959E3F08F0B3CFDC
:1021B0009395880F08F09927EE0F979587950895C6
:1021C000DCD008F481E0089514D1E3954AC10CD025
:1021D00037C107D140F0FED030F021F45F3F19F055
:1021E000F0C0511172C1F3C04DD198F39923C9F3D6
:1021F0005523B1F3951B550BBB27AA27621773070D
:10220000840738F09F5F5F4F220F331F441FAA1FC0
:10221000A9F333D00E2E3AF0E0E830D09150504080
:10222000E695001CCAF729D0FE2F27D0660F771F2E
:10223000881FBB1F261737074807AB07B0E809F010
:10224000BB0B802DBF01FF2793585F4F2AF09E3FA5
:10225000510568F0B6C039C15F3FECF3983EDCF33E
:10226000869577956795B795F7959F5FC9F7880F1E
:10227000911D9695879597F90895E1E0660F771F70
:10228000881FBB1F621773078407BA0720F0621B01
:10229000730B840BBA0BEE1F88F7E095089504D0FA
:1022A0006894B11112C10895F5D088F09F5790F04D
:1022B000B92F9927B751A0F0D1F0660F771F881F6B
:1022C000991F1AF0BA95C9F712C0B13081F0FCD04D
:1022D000B1E00895F9C0672F782F8827B85F39F0EB
:1022E000B93FCCF3869577956795B395D9F73EF4CA
:1022F00090958095709561957F4F8F4F9F4F089572
:10230000E89409C097FB3EF490958095709561958F
:102310007F4F8F4F9F4F9923A9F0F92F96E9BB2745
:102320009395F695879577956795B795F111F8CFC1
:10233000FAF4BB0F11F460FF1BC06F5F7F4F8F4F2C
:102340009F4F16C0882311F096E911C0772321F022
:102350009EE8872F762F05C0662371F096E8862FBA
:1023600070E060E02AF09A95660F771F881FDAF711
:10237000880F9695879597F90895990F0008550F3E
:10238000AA0BE0E8FEEF16161706E807F907C0F0FB
:1023900012161306E407F50798F0621B730B840B03
:1023A000950B39F40A2661F0232B242B252B21F4DD
:1023B00008950A2609F4A140A6958FEF811D811D7D
:1023C000089597F99F6780E870E060E008959FEFB7
:1023D00080EC089500240A941616170618060906BC
:1023E000089500240A94121613061406050608958B
:1023F000EECF50D0E8F3E894E0E0BB279F57F0F031
:102400002AED3FE049EC06C0EE0FBB0F661F771FB9
:10241000881F28F0B23A62077307840728F0B25A7F
:10242000620B730B840BE3959A9572F7803830F446
:102430009A95BB0F661F771F881FD2F79048BEC0C2
:10244000092E0394000C11F4882352F0BB0F40F4C2
:10245000BF2B11F460FF04C06F5F7F4F8F4F9F4F02
:102460000895EF93E0FF06C0A2EA2AED3FE049ECB1
:102470005FEB53DEE5DF0F90039401FC9058EAE335
:10248000F1E0A8C057FD9058440F551F59F05F3F29
:1024900071F04795880F97FB991F61F09F3F79F086
:1024A00087950895121613061406551FF2CF469508
:1024B000F1DF08C0161617061806991FF1CF86958A
:1024C0007105610508940895E894BB27662777276E
:1024D000CB0197F9089551DF08F48FEF08950BD0E1
:1024E000AFCF78DF28F07DDF18F0952309F069CFB2
:1024F0006ECF1124EACFC6DFA0F3959FD1F3950FDD
:1025000050E0551F629FF001729FBB27F00DB11D77
:10251000639FAA27F00DB11DAA1F649F6627B00D07
:10252000A11D661F829F2227B00DA11D621F739FF0
:10253000B00DA11D621F839FA00D611D221F749FFE
:102540003327A00D611D231F849F600D211D822F45
:10255000762F6A2F11249F5750408AF0E1F088238C
:102560004AF0EE0FFF1FBB1F661F771F881F915099
:102570005040A9F79E3F510570F023CFA6CF5F3F93
:10258000ECF3983EDCF3869577956795B795F795CC
:10259000E7959F5FC1F7FE2B880F911D9695879554
:1025A00097F908959F9325DF0F9007FCEE5F59CFB1
:1025B000E4DE880B990B08959F3F31F0915020F491
:1025C000879577956795B795880F911D969587950F
:1025D00097F908959F938F937F936F93FF93EF9352
:1025E0009B01AC017CDFEF91FF9105D02F913F91D2
:1025F0004F915F9174CFDF93CF931F930F93FF920F
:10260000EF92DF927B018C01689405C0DA2EEF0116
:1026100072DFFE01E894A591259135914591559180
:10262000AEF3EF017ADDFE019701A801DA9479F7A4
:10263000DF90EF90FF900F911F91CF91DF91089560
:10264000A1E21A2EAA1BBB1BFD010DC0AA1FBB1FB6
:10265000EE1FFF1FA217B307E407F50720F0A21B28
:10266000B30BE40BF50B661F771F881F991F1A9495
:1026700069F760957095809590959B01AC01BD01BF
:10268000CF010895EE0FFF1F0590F491E02D1994EE
:0C2690000790F691E02D1994F894FFCF0C
:10269C00090008000A000B008B088B088B088B08BC
:1026AC008B088B088B088B08000000003D0DAC0ECE
:1026BC00920CAB0C9D0C1C0D0D0A006E616E00692A
:0A26CC006E66006F7666002E0000B7
:00000001FF
