:1000000031C100000C94FD080C9428090C9453098C
:100010000C947E090C94A9090C94D4090C94FF0942
:100020000C942A0A50C100004EC100004CC10000CF
:100030004AC1000048C1000046C1000044C10000A0
:1000400042C1000040C100003EC100003CC10000B0
:100050003AC1000038C1000036C100000C94550AB6
:1000600032C100000C94010E0C94370E2CC100001C
:100070002AC1000028C1000026C1000024C10000E0
:1000800022C1000020C100001EC100001CC10000F0
:100090001AC1000018C1000016C1000014C1000000
:1000A00012C1000010C100000EC100000CC1000010
:1000B0000AC1000008C1000006C1000004C1000020
:1000C00002C1000000C10000FEC00000FCC0000032
:1000D000FAC00000F8C00000F6C00000F4C0000044
:1000E000F2C00000D708A108A908B508C208E308B3
:1000F000F008310B360B3B0B450B4F0BC80B590B64
:10010000610B690B730B7D0B870B960BA00BC80B58
:10011000AA0BB40BBE0BE90BEC0BDB0BDF0BE50BF7
:10012000230CF00BF40BFA0BFE0B020C080C0C0C5E
:10013000100C230C160C1A0C1E0C05A84CCDB2D4B6
:100140004EB93836A9020C50B9918688083CA6AA47
:10015000AA2ABE000000803F00000A0B02090C0D15
:100160000E0807030401000000000000000000006A
:10017000000000000000000000000000000000007F
:10018000000000001211100000000000000000003C
:10019000000000000000000000000000000001025C
:1001A0001020200808102040102040800201020189
:1001B0000804020101020408102040808040201041
:1001C000080402018004020180402010080402019A
:1001D0000804020101020408102040800102040802
:1001E00010204080050505050705080808080202DB
:1001F00002020A0A080804040404010101010101C1
:1002000001010303030303030303040707070C0CA3
:100210000C0C0C0C0C0C020202020606060606066A
:1002200006060B0B0B0B0B0B0B0B00002200250023
:1002300028002B002E0031003400020100000501CF
:1002400008010B0100002100240027002A002D00D6
:100250003000330001010000040107010A01090612
:100260008508690E11241FBECFEFD1E2DEBFCDBFDE
:1002700000E00CBF12E0A0E0B2E0ECE9F6E200E042
:100280000BBF02C007900D92AA33B107D9F725E042
:10029000AAE3B2E001C01D92A233B207E1F712E077
:1002A000C4E6D2E000E006C022970109FE010BBFC0
:1002B0000E944813CE35D10780E00807A9F70E94B5
:1002C00070100C944C139CCEFC0110820895CF92B8
:1002D000DF92EF92FF92CF93DF93EC016A017B01F3
:1002E0008B859C85AD85BE859A01AB01281B390B9A
:1002F0004A0B5B0BDA01C90149815A816B817C8110
:1003000084179507A607B707D8F08881813019F0C0
:10031000823029F00CC0E985FA85199508C061E0A2
:100320008885811160E068878F810E945D0CCB8693
:10033000DC86ED86FE868F8598890196988B8F875F
:100340008D819E8197FD06C02F8538892817390732
:100350000CF01882DF91CF91FF90EF90DF90CF905B
:1003600008950F931F93CF93DF93EC018C010655F3
:100370001F4FCE01A9DF6196C017D107D1F7DF91DA
:10038000CF911F910F910895CF92DF92EF92FF923C
:100390001F93CF93DF936A017B01EC011AE0888100
:1003A000882321F0B701A601CE0191DF115061969B
:1003B0001111F5CFDF91CF911F91FF90EF90DF905A
:1003C000CF900895CF93DF93EC010E949F0AAB0179
:1003D000BC01CE01DF91CF91D7CF20E0FC0130816D
:1003E000332331F02F5F41962A30C1F78FEF089504
:1003F000822F0895CF92DF92EF92FF920F931F9377
:10040000CF93DF9300D01F92CDB7DEB76C01790197
:1004100049835A836B837C83E0DF282F49815A818B
:100420006B817C818F3FD9F081E12802C00CD11C07
:10043000112481E0F60180834183528363837483B6
:1004400016830583F286E18629830E949F0AF601BE
:100450006387748785879687108A17862981822FFC
:100460000F900F900F900F90DF91CF911F910F91F0
:10047000FF90EF90DF90CF9008950F931F930FEFB1
:100480001FEFB8DF1F910F9108958CB185FB88276E
:1004900080F980931F0380911F03882361F080916E
:1004A0001A0390911B03A0911C03B0911D030196A8
:1004B000A11DB11D0BC080911A0390911B03A09147
:1004C0001C03B0911D030197A109B10980931A0380
:1004D00090931B03A0931C03B0931D0380911A03F8
:1004E00090911B03A0911C03B0911D038834964288
:1004F000A105B1056CF080911A0390911B03A091A6
:100500001C03B0911D0388549642A109B1090EC085
:1005100080911A0390911B03A0911C03B0911D03BD
:10052000B7FF0CC087E496E2A0E0B0E080931A0326
:1005300090931B03A0931C03B0931D03089589B1EE
:100540008695817080931E0380911E03882361F03D
:100550008091160390911703A0911803B09119038D
:100560000196A11DB11D0BC0809116039091170338
:10057000A0911803B09119030197A109B1098093C3
:10058000160390931703A0931803B0931903809157
:10059000160390911703A0911803B09119038834A2
:1005A0009642A105B1056CF0809116039091170356
:1005B000A0911803B091190388549642A109B1097A
:1005C0000EC08091160390911703A0911803B0916B
:1005D0001903B7FF0CC087E496E2A0E0B0E0809377
:1005E000160390931703A0931803B093190308956B
:1005F0001092540210925502109256021092570215
:100600001092500210925102109252021092530214
:1006100010925C0210925D0210925E0210925F02D4
:10062000109258021092590210925A0210925B02D4
:1006300080E090E0A0E0B0E48093680290936902CB
:10064000A0936A02B0936B0227EC33E042E050E0E3
:1006500060E070E08CE692E010DF992787FD9095CE
:1006600090934F0280934E0210921603109217033C
:10067000109218031092190310921A0310921B0380
:1006800010921C0310921D03109246021092470212
:10069000109248021092490210924A0210924B02A4
:1006A00010924C0210924D0210924202109243029C
:1006B000109244021092450280E090E0A8E0B2E47B
:1006C00080933E0290933F02A0934002B093410278
:1006D00080E090E0AAEAB3E480933A0290933B0270
:1006E000A0933C02B0933D0260E082E00E94240CA3
:1006F00060E083E00E94240C60E085E10E94240C0D
:1007000060E084E10E94240C43E050E065E472E084
:1007100080E002D543E050E06FE972E082E0FCC483
:100720008CE692E04FCE60911A0370911B0380918A
:100730001C0390911D030E9482119B01AC010E9439
:100740007C102AED3FE049E450E40E946F1220E063
:1007500030E249E156E40C94E71060911603709181
:10076000170380911803909119030E9482119B0135
:10077000AC010E947C102AED3FE049E450E40E9465
:100780006F1220E030E249E156E40C94E7104F92FA
:100790005F926F927F928F929F92AF92BF92CF9211
:1007A000DF92EF92FF92CF93DF93CDB7DEB76497DE
:1007B0000FB6F894DEBF0FBECDBFCFDF6D837E8353
:1007C0008F839887B0DF69877A878B879C87209192
:1007D00054023091550240915602509157026D815A
:1007E0007E818F8198850E947B106B017C01209116
:1007F000500230915102409152025091530269854A
:100800007A858B859C850E947B1020E030E040E05B
:100810005FE30E946F12209158023091590240917B
:100820005A0250915B020E947C104B015C01609364
:10083000600270936102809362029093630220E0F1
:1008400030E040E05FE3C701B6010E946F122091E3
:100850005C0230915D0240915E0250915F020E9405
:100860007C106B017C01609364027093650280933D
:100870006602909367022AED3FE049E450E4C50127
:10088000B4010E946B12181684F42AED3FE049EC83
:1008900050E4C501B4010E947B1060936002709324
:1008A0006102809362029093630280906002909054
:1008B0006102A0906202B09063022AED3FE049E439
:1008C00050ECC501B4010E94E01087FF10C02AED72
:1008D0003FE049EC50E4C501B4010E947C106093F4
:1008E00060027093610280936202909363022AED2A
:1008F0003FE049E450E4C701B6010E946B121816AC
:1009000084F42AED3FE049EC50E4C701B6010E94AF
:100910007B106093640270936502809366029093EB
:100920006702C0906402D0906502E0906602F09089
:1009300067022AED3FE049E450ECC701B6010E948E
:10094000E01087FF10C02AED3FE049EC50E4C701FA
:10095000B6010E947C1060936402709365028093DC
:1009600066029093670280903E0290903F02A090B2
:100970004002B0904102C0904202D0904302E09009
:100980004402F0904502C701B6010E94E410698B51
:100990007A8B8B8B9C8B40906402509065026090A8
:1009A0006602709067028091600290916102A0914E
:1009B0006202B091630289839A83AB83BC839C01FA
:1009C000AD01C301B2010E947C106D877E878F87C5
:1009D000988B29893A894B895C89C501B4010E94A9
:1009E0006F1220E030E040E05FE30E946F122D853F
:1009F0003E854F8558890E946F129B01AC01609122
:100A00004A0270914B0280914C0290914D020E94DB
:100A10007C1060934A0270934B0280934C02909337
:100A20004D02C701B6010E94D2129B01AC01C50163
:100A3000B4010E946F1220E030E040E05FE30E94CA
:100A40006F122D853E854F8558890E946F129B013C
:100A5000AC016091460270914702809148029091EA
:100A600049020E947C106093460270934702809373
:100A700048029093490220913A0230913B02409102
:100A80003C0250913D02C501B4010E94E7104B01A8
:100A90005C0129813A814B815C81C301B2010E94D2
:100AA0007B109B01AC01C501B4010E946F129B0138
:100AB000AC01C701B6010E947C106B017C012AEDDC
:100AC0003FE049EC50E40E946B1287FF09C0C092DE
:100AD0004202D0924302E0924402F092450210C0DA
:100AE0002AED3FE049EC50E4C701B6010E947B10BB
:100AF00060934202709343028093440290934502B4
:100B0000C0904202D0904302E0904402F09045022F
:100B100020E030E0A901C701B6010E94E01087FF84
:100B200010C02AED3FE049EC50E4C701B6010E9435
:100B30007C1060934202709343028093440290932E
:100B400045028090680290906902A0906A02B0907D
:100B50006B0220E030E04AE754E469817A818B81BE
:100B60009C810E946F12A50194010E94E7106B0105
:100B70007C016093600270936102809362029093A3
:100B8000630220E030E04AE754E4C301B2010E946E
:100B90006F12A50194010E94E710609364027093A4
:100BA000650280936602909367028D819E81AF817A
:100BB000B8858093540290935502A0935602B09347
:100BC000570289859A85AB85BC85809350029093A6
:100BD0005102A0935202B093530222E030E0B701D9
:100BE000A60185E994E064960FB6F894DEBF0FBEC7
:100BF000CDBFDF91CF91FF90EF90DF90CF90BF906E
:100C0000AF909F908F907F906F905F904F900C94DB
:100C10005F108CE692E0A5CB61E08091000214D6D3
:100C200061E08091040210D661E0809102020CD64E
:100C300061E08091060208C6CF93DF93EC0197FD37
:100C400007C0BC0180910002E8D460E070E009C0F8
:100C500060E070E080910002E0D4662777276C1B8B
:100C60007D0B80910202DF91CF91D7C4CF93DF93A8
:100C7000EC0160E070E097FD07C080910602CDD4E2
:100C8000BE018091040209C080910402C6D4662787
:100C900077276C1B7D0B80910602DF91CF91BDC43D
:100CA0008F929F92AF92BF92CF92DF92EF92FF927C
:100CB00020E030E040E85FE36091880470918904AF
:100CC00080918A0490918B040E947C104B015C01FE
:100CD000609388047093890480938A0490938B04B2
:100CE00020E030E040E85FE3609184047091850487
:100CF00080918604909187040E947C106B017C0196
:100D00006093840470938504809386049093870491
:100D100020E030E040E850E4C501B4010E946B12CD
:100D2000181664F4B7FAB094B7F8B09480928804B7
:100D300090928904A0928A04B0928B0420E030E063
:100D400040E850E4C701B6010E946B12181664F423
:100D5000F7FAF094F7F8F094C0928404D0928504E6
:100D6000E0928604F0928704FF90EF90DF90CF909E
:100D7000BF90AF909F908F9008954F925F926F9227
:100D80007F928F929F92AF92BF92CF92DF92EF921B
:100D9000FF92CF93DF9300D01F92CDB7DEB72091A3
:100DA00084043091850440918604509187046091B9
:100DB00064027091650280916602909167020E94C0
:100DC0007B102B013C0120918804309189044091D3
:100DD0008A0450918B04609160027091610280914D
:100DE0006202909163020E947B1069837A838B83F5
:100DF0009C8320E030E042EE50ECC301B2010E943F
:100E00006F12209128033091290340912A035091B9
:100E10002B030E947C104B015C01609328037093AC
:100E2000290380932A0390932B0327E635ED41E0B5
:100E300051EC69817A818B819C810E946F12209193
:100E40002C0330912D0340912E0350912F030E94CB
:100E50007C106B017C0160932C0370932D038093B5
:100E60002E0390932F0320E030E04FE753E4C501B9
:100E7000B4010E946B1218162CF480E090E0AFE7EA
:100E8000B3E40EC020E030E04FE753ECC501B401FD
:100E90000E94E01087FF0CC080E090E0AFE7B3EC69
:100EA0008093280390932903A0932A03B0932B03E4
:100EB00020E030E04FE753E4C701B6010E946B1217
:100EC00018162CF480E090E0AFE7B3E40EC020E009
:100ED00030E04FE753ECC701B6010E94E01087FFF6
:100EE0000CC080E090E0AFE7B3EC80932C039093CC
:100EF0002D03A0932E03B0932F0320EC3CEE40EA89
:100F000050ECC301B2010E946F122091280330916E
:100F1000290340912A0350912B030E947C104B011E
:100F20005C016093200370932103809322039093CC
:100F300023032BE935E543EC50EC69817A818B8101
:100F40009C810E946F1220912C0330912D034091BF
:100F50002E0350912F030E947C106B017C01609343
:100F6000240370932503809326039093270320E0A6
:100F700030E04FE753E4C501B4010E946B1218162C
:100F80002CF480E090E0AFE7B3E40EC020E030E066
:100F90004FE753ECC501B4010E94E01087FF0CC07D
:100FA00080E090E0AFE7B3EC8093200390932103BF
:100FB000A0932203B093230320E030E04FE753E4F3
:100FC000C701B6010E946B1218162CF480E090E065
:100FD000AFE7B3E40EC020E030E04FE753ECC701C9
:100FE000B6010E94E01087FF0CC080E090E0AFE700
:100FF000B3EC8093240390932503A0932603B0932E
:101000002703609120037091210380912203909126
:1010100023030E944F11CB010FDE609124037091D6
:10102000250380912603909127030E944F11CB0145
:101030000F900F900F900F90DF91CF91FF90EF9056
:10104000DF90CF90BF90AF909F908F907F906F90E8
:101050005F904F900BCE26E040E052EC61E070E0F4
:1010600085E994E06ED5C4DAD7DD80E090E0FEDD5E
:1010700080E090E0E1DD10922C0310922D0310929D
:101080002E0310922F03109228031092290310921E
:101090002A0310922B031092200310922103109226
:1010A000220310922303109224031092250310921E
:1010B00026031092270380E090E0A0E8BFE380932E
:1010C000880490938904A0938A04B0938B0480933E
:1010D000840490938504A0938604B09387042DEB39
:1010E00036E045E050E060E070E08AED93E0C5D97D
:1010F00020E536E048EB5BE060E070E080E393E001
:10110000BCC90EDB8AED93E05DC98AED93E029D975
:1011100080E393E026C90895883008F06DC0E82F79
:10112000F0E0EE0FFF1FE85FFD4F7183608390E0FA
:10113000FC013197E730F10590F5EE58FF4F0C9424
:101140004213809169008C7F842B80936900E89A18
:10115000089580916900440F551F440F551F837FE8
:10116000842B80936900E99A08958091690074E066
:10117000440F551F7A95E1F78F7C842B809369008B
:10118000EA9A08958091690066E0440F551F6A95B8
:10119000E1F78F73842B80936900EB9A0895809117
:1011A0006A008C7F842B80936A00EC9A089580916A
:1011B0006A00440F551F440F551F837F842B809373
:1011C0006A00ED9A089580916A0024E0440F551F4B
:1011D0002A95E1F78F7C842B80936A00EE9A08951C
:1011E00080916A0096E0440F551F9A95E1F78F733E
:1011F000842B80936A00EF9A08951F920F920FB686
:101200000F9211240BB60F922F933F934F935F933E
:101210006F937F938F939F93AF93BF93EF93FF93BE
:10122000E0910C02F0910D021995FF91EF91BF91A1
:10123000AF919F918F917F916F915F914F913F916E
:101240002F910F900BBE0F900FBE0F901F9018950F
:101250001F920F920FB60F9211240BB60F922F937D
:101260003F934F935F936F937F938F939F93AF932E
:10127000BF93EF93FF93E0910E02F0910F02199547
:10128000FF91EF91BF91AF919F918F917F916F915E
:101290005F914F913F912F910F900BBE0F900FBE1A
:1012A0000F901F9018951F920F920FB60F92112456
:1012B0000BB60F922F933F934F935F936F937F9350
:1012C0008F939F93AF93BF93EF93FF93E09110029F
:1012D000F09111021995FF91EF91BF91AF919F91FC
:1012E0008F917F916F915F914F913F912F910F90CF
:1012F0000BBE0F900FBE0F901F9018951F920F926C
:101300000FB60F9211240BB60F922F933F934F936A
:101310005F936F937F938F939F93AF93BF93EF935D
:10132000FF93E0911202F09113021995FF91EF9152
:10133000BF91AF919F918F917F916F915F914F91ED
:101340003F912F910F900BBE0F900FBE0F901F90EB
:1013500018951F920F920FB60F9211240BB60F9291
:101360002F933F934F935F936F937F938F939F93AD
:10137000AF93BF93EF93FF93E0910802F0910902BE
:101380001995FF91EF91BF91AF919F918F917F91AF
:101390006F915F914F913F912F910F900BBE0F90E6
:1013A0000FBE0F901F9018951F920F920FB60F92BD
:1013B00011240BB60F922F933F934F935F936F932C
:1013C0007F938F939F93AF93BF93EF93FF93E0919E
:1013D0000A02F0910B021995FF91EF91BF91AF9125
:1013E0009F918F917F916F915F914F913F912F913D
:1013F0000F900BBE0F900FBE0F901F9018951F926D
:101400000F920FB60F9211240BB60F922F933F93AA
:101410004F935F936F937F938F939F93AF93BF93FC
:10142000EF93FF93E0911402F09115021995FF914B
:10143000EF91BF91AF919F918F917F916F915F914C
:101440004F913F912F910F900BBE0F900FBE0F90B9
:101450001F9018951F920F920FB60F9211240BB682
:101460000F922F933F934F935F936F937F938F933D
:101470009F93AF93BF93EF93FF93E0911602F09188
:1014800017021995FF91EF91BF91AF919F918F91A5
:101490007F916F915F914F913F912F910F900BBE74
:1014A0000F900FBE0F901F9018951F920F920FB6BE
:1014B0000F9211242F933F938F939F93AF93BF93DA
:1014C00080918D0490918E04A0918F04B09190042E
:1014D00030918C0423E0230F2D3720F40196A11DB9
:1014E000B11D05C026E8230F0296A11DB11D209352
:1014F0008C0480938D0490938E04A0938F04B093FA
:1015000090048091910490919204A0919304B091E1
:1015100094040196A11DB11D8093910490939204AF
:10152000A0939304B0939404BF91AF919F918F9136
:101530003F912F910F900FBE0F901F9018952FB7CE
:10154000F89460918D0470918E0480918F04909135
:1015500090042FBF0895789484B5826084BD84B5CB
:10156000816084BD85B5826085BD85B5816085BD9E
:10157000EEE6F0E0808181608083E1E8F0E01082B7
:10158000808182608083808181608083E0E8F0E0F8
:10159000808181608083E1EBF0E0808184608083E2
:1015A000E0EBF0E0808181608083E1E9F0E0808120
:1015B00082608083808181608083E0E9F0E08081C7
:1015C00081608083E1EAF0E08081826080838081B5
:1015D00081608083E0EAF0E0808181608083E1E2E5
:1015E000F1E0808182608083808181608083E0E29D
:1015F000F1E0808181608083EAE7F0E080818460AF
:10160000808380818260808380818160808380810B
:10161000806880831092C10008951F93CF93DF9359
:10162000182FEB0161E010D1209711F460E004C0A5
:10163000CF3FD10531F461E0812FDF91CF911F9130
:101640003CC1E12FF0E0E85AFE4F449150E0FA012E
:101650003197E231F10508F09BC0E758FF4F0C9439
:10166000421384B5806884BDC7BD97C084B58062CD
:1016700084BDC8BD92C08091800080688093800046
:10168000D0938900C093880088C0809180008062D8
:1016900080938000D0938B00C0938A007EC080919D
:1016A0008000886080938000D0938D00C0938C0070
:1016B00074C08091B00080688093B000C093B30084
:1016C0006CC08091B00080628093B000C093B40081
:1016D00064C080919000806880939000D0939900BE
:1016E000C09398005AC080919000806280939000CF
:1016F000D0939B00C0939A0050C080919000886066
:1017000080939000D0939D00C0939C0046C0809130
:10171000A00080688093A0008091A0008F7B8093C0
:10172000A000D093A900C093A80037C08091A0006A
:1017300080628093A000D093AB00C093AA002DC01C
:101740008091A00088608093A000D093AD00C093EA
:10175000AC0023C080912001806880932001D09349
:101760002901C093280119C08091200180628093D3
:101770002001D0932B01C0932A010FC0809120013A
:10178000886080932001D0932D01C0932C0105C067
:10179000C038D1050CF04FCF49CFDF91CF911F91C9
:1017A000089590E0FC013197E231F10508F04BC05B
:1017B000E557FF4F67C7809180008F7703C0809106
:1017C00080008F7D80938000089580918000877FC6
:1017D000F9CF84B58F7702C084B58F7D84BD08951D
:1017E0008091B0008F7703C08091B0008F7D80938F
:1017F000B0000895809190008F7707C0809190008D
:101800008F7D03C080919000877F80939000089522
:101810008091A0008F7707C08091A0008F7D03C0CA
:101820008091A000877F8093A0000895809120017F
:101830008F7707C0809120018F7D03C080912001A8
:10184000877F809320010895CF93DF9390E0FC0180
:10185000E256FE4F2491FC01EC51FE4F8491882307
:1018600049F190E0880F991FFC01EC5BFD4FA591B9
:10187000B491865D9D4FFC01C591D4919FB76111D4
:1018800008C0F8948C91209582238C9388818223C0
:101890000AC0623051F4F8948C91322F3095832332
:1018A0008C938881822B888304C0F8948C91822B3E
:1018B0008C939FBFDF91CF9108950F931F93CF9388
:1018C000DF931F92CDB7DEB7282F30E0F901E85A39
:1018D000FE4F8491F901E256FE4F1491F901EC514B
:1018E000FE4F04910023C1F0882319F0698359DF6A
:1018F0006981E02FF0E0EE0FFF1FE65DFD4FA5913F
:10190000B4919FB7F8948C91611103C01095812315
:1019100001C0812B8C939FBF0F90DF91CF911F91BE
:101920000F910895FC01818D228D90E0805C9F4F86
:10193000821B91098F7399270895FC01918D828DE7
:10194000981731F0828DE80FF11D858D90E0089594
:101950008FEF9FEF0895FC01918D828D981761F0B4
:10196000828DDF01A80FB11D5D968C91928D9F5FD6
:101970009F73928F90E008958FEF9FEF089580E618
:101980009EE0892B39F080E090E0892B19F098D106
:10199000811125C080E090E0892B41F080E090E04B
:1019A000892B21F00E94000081111CC080E090E092
:1019B000892B41F080E090E0892B21F00E9400000B
:1019C000811113C080E090E0892BA1F080E090E0CD
:1019D000892B81F00E94000081110AC008950E94A5
:1019E0000000D8CF0E940000E1CF0E940000EACFA3
:1019F0000C9400000895FC01848DDF01A80FB11D37
:101A0000A35ABF4F2C91848D90E001968F73992734
:101A1000848FA689B7892C93A089B1898C91806421
:101A20008C93938D848D981306C00288F389E02DE2
:101A300080818F7D80830895CF93DF93EC01888D23
:101A40008823C1F0EA89FB89808185FD05C0A889CA
:101A5000B9898C9186FD0EC00FB607FCF5CF808149
:101A600085FFF2CFA889B9898C9185FFEDCFCE0192
:101A7000C2DFE8CFDF91CF910895CF92DF92FF923E
:101A80000F931F93CF93DF931F92CDB7DEB76C01F7
:101A900081E0D60158968C9358975B969C915B9702
:101AA0005C968C915C97981307C05096ED91FC91D1
:101AB0005197808185FD2DC0F601038D10E00F5FE9
:101AC0001F4F0F731127F02EF601848DF81210C0EE
:101AD0000FB607FCF9CFD6015096ED91FC915197C6
:101AE000808185FFF1CFC601698385DF6981ECCFF5
:101AF000838DE80FF11DE35AFF4F6083D6015B969B
:101B00000C935B975296ED91FC9153978081806284
:101B10000CC0D6015696ED91FC9157976083509674
:101B2000ED91FC91519780818064808381E090E009
:101B30000F90DF91CF911F910F91FF90DF90CF9089
:101B40000895BF92CF92DF92EF92FF92CF93DF93EF
:101B5000EC016A017B01B22EE889F98982E0808379
:101B6000411581EE58076105710599F060E079E053
:101B70008DE390E0A701960163D521503109410919
:101B800051095695479537952795211580E13807D6
:101B900090F0E889F989108260E874E88EE190E0BD
:101BA000A70196014DD5215031094109510956959A
:101BB000479537952795EC85FD853083EE85FF8524
:101BC0002083188EEC89FD89B082EA89FB898081A7
:101BD00080618083EA89FB89808188608083EA89CB
:101BE000FB89808180688083EA89FB8980818F7D81
:101BF0008083DF91CF91FF90EF90DF90CF90BF90E7
:101C000008951F920F920FB60F9211240BB60F92E8
:101C10002F938F939F93EF93FF93E091A504F091FF
:101C2000A6048081E091AB04F091AC0482FD12C067
:101C300090818091AE048F5F8F732091AF048217E3
:101C400051F0E091AE04F0E0EB56FB4F958F80939E
:101C5000AE0401C08081FF91EF919F918F912F91F0
:101C60000F900BBE0F900FBE0F901F9018951F92F4
:101C70000F920FB60F9211240BB60F922F933F9332
:101C80004F935F936F937F938F939F93AF93BF9384
:101C9000EF93FF9385E994E0AEDEFF91EF91BF9162
:101CA000AF919F918F917F916F915F914F913F91F4
:101CB0002F910F900BBE0F900FBE0F901F90189595
:101CC00085E994E02FDE21E0892B09F420E0822FC2
:101CD0000895109298041092970488EE93E0A0E083
:101CE000B0E08093990490939A04A0939B04B093DE
:101CF0009C048CE192E0909396048093950485EC8B
:101D000090E09093A2048093A10484EC90E09093DF
:101D1000A4048093A30480EC90E09093A6048093A5
:101D2000A50481EC90E09093A8048093A70482EC32
:101D300090E09093AA048093A90486EC90E090939D
:101D4000AC048093AB041092AE041092AF041092D6
:101D5000B0041092B1040895CF92DF92EF92FF92F7
:101D60000F931F93CF93DF937C016A01EB0100E097
:101D700010E00C151D0571F06991D701ED91FC91F2
:101D80000190F081E02DC7011995892B19F00F5FA3
:101D90001F4FEFCFC801DF91CF911F910F91FF909F
:101DA000EF90DF90CF9008956115710581F0DB0110
:101DB0000D900020E9F7AD0141505109461B570B2A
:101DC000DC01ED91FC910280F381E02D199480E01B
:101DD00090E00895DC01ED91FC910190F081E02DFF
:101DE000199468E272E0E0CF8F929F92AF92BF9217
:101DF000DF92EF92FF920F931F93CF93DF93CDB7B4
:101E0000DEB7A1970FB6F894DEBF0FBECDBF7C0141
:101E1000F42FD52ECB0119A2223008F42AE08E012E
:101E20000F5D1F4F822E912CA12CB12C6F2F7D2D79
:101E3000A501940105D4F22FD32ECA010150110936
:101E40006A3014F4E0E301C0E7E3E60FD801EC9355
:101E5000232B242B252B51F7B801C701A5DFA19611
:101E60000FB6F894DEBF0FBECDBFDF91CF911F91AB
:101E70000F91FF90EF90DF90BF90AF909F908F9069
:101E80000895CF92DF92EF92FF920F931F93CF931B
:101E9000DF93EC016A017B012115310579F4E881BA
:101EA000F9810190F081E02D642FDF91CF911F9196
:101EB0000F91FF90EF90DF90CF9019942A30310569
:101EC000D9F477FF18C06DE285DF8C0144275527D0
:101ED000BA014C195D096E097F092AE0CE0184DF41
:101EE000800F911FDF91CF911F910F91FF90EF9085
:101EF000DF90CF9008952AE0B701A601CE01DF91CF
:101F0000CF911F910F91FF90EF90DF90CF906CCF0A
:101F10004F925F926F927F928F929F92AF92BF92F9
:101F2000CF92DF92EF92FF920F931F93CF93DF93A5
:101F3000EC016A017B01B22E9A01AB01C701B60127
:101F400037D3882319F06BE272E024C026013701F1
:101F5000E89477F82FEF3FEF4FE75FE7C301B20157
:101F600027D381110CC02FEF3FEF4FE75FE7C3018D
:101F7000B20126D118161CF46FE272E00BC02FEFED
:101F80003FEF4FE75FE4C701B601A5D21816A4F4EE
:101F900063E372E0CE01DF91CF911F910F91FF902B
:101FA000EF90DF90CF90BF90AF909F908F907F90F9
:101FB0006F905F904F90F8CE2FEF3FEF4FE75FECC1
:101FC000C701B601FDD087FDE3CF20E030E0A901D5
:101FD000C701B601F5D087FF09C06DE2CE01FADE78
:101FE0008C01F7FAF094F7F8F09402C000E010E0EA
:101FF000A12C60E070E080E09FE3AB1439F020E0BA
:1020000030E040E251E4E3D0A394F7CF9B01AC0170
:10201000C701B60171D06B017C0146D12B013C0197
:102020006FD19B01AC01C701B60165D06B017C018A
:102030002AE0B301A201CE01D7DE080F191FBB2091
:1020400031F067E372E0CE01AFDE080F191F7B2C81
:10205000772019F120E030E040E251E4C701B601F9
:102060003ED26B017C011BD14B01AA2497FCA094AA
:10207000BA2C2AE030E0B501A401CE0102DF080F3E
:10208000191FC501B4013ED19B01AC01C701B601C6
:1020900032D06B017C017A94DBCFC801DF91CF9104
:1020A0001F910F91FF90EF90DF90CF90BF90AF9076
:1020B0009F908F907F906F905F904F9008950F93B7
:1020C0001F93CF93DF93EC0123DF8C01CE0189DED8
:1020D000800F911FDF91CF911F910F910895089567
:1020E0003ADAFDDF0E942B08CFEBDCE00AD820971C
:1020F000E9F345DCFBCF5058BB27AA270ED0A0C17F
:1021000069D130F06ED120F031F49F3F11F41EF40C
:102110005EC10EF4E095E7FB54C1E92FB3D180F323
:10212000BA17620773078407950718F071F49EF5D4
:10213000CBC10EF4E0950B2EBA2FA02D0B01B901E7
:1021400090010C01CA01A0011124FF27591B99F02D
:10215000593F50F4503E68F11A16F040A22F232F39
:10216000342F4427585FF3CF469537952795A79589
:10217000F0405395C9F77EF41F16BA0B620B730B30
:10218000840BBAF09150A1F0FF0FBB1F661F771FA1
:10219000881FC2F70EC0BA0F621F731F841F48F456
:1021A000879577956795B795F7959E3F08F0B3CFDC
:1021B0009395880F08F09927EE0F979587950895C6
:1021C000DCD008F481E0089514D1E3954AC10CD025
:1021D00037C107D140F0FED030F021F45F3F19F055
:1021E000F0C0511172C1F3C04DD198F39923C9F3D6
:1021F0005523B1F3951B550BBB27AA27621773070D
:10220000840738F09F5F5F4F220F331F441FAA1FC0
:10221000A9F333D00E2E3AF0E0E830D09150504080
:10222000E695001CCAF729D0FE2F27D0660F771F2E
:10223000881FBB1F261737074807AB07B0E809F010
:10224000BB0B802DBF01FF2793585F4F2AF09E3FA5
:10225000510568F0B6C039C15F3FECF3983EDCF33E
:10226000869577956795B795F7959F5FC9F7880F1E
:10227000911D9695879597F90895E1E0660F771F70
:10228000881FBB1F621773078407BA0720F0621B01
:10229000730B840BBA0BEE1F88F7E095089504D0FA
:1022A0006894B11112C10895F5D088F09F5790F04D
:1022B000B92F9927B751A0F0D1F0660F771F881F6B
:1022C000991F1AF0BA95C9F712C0B13081F0FCD04D
:1022D000B1E00895F9C0672F782F8827B85F39F0EB
:1022E000B93FCCF3869577956795B395D9F73EF4CA
:1022F00090958095709561957F4F8F4F9F4F089572
:10230000E89409C097FB3EF490958095709561958F
:102310007F4F8F4F9F4F9923A9F0F92F96E9BB2745
:102320009395F695879577956795B795F111F8CFC1
:10233000FAF4BB0F11F460FF1BC06F5F7F4F8F4F2C
:102340009F4F16C0882311F096E911C0772321F022
:102350009EE8872F762F05C0662371F096E8862FBA
:1023600070E060E02AF09A95660F771F881FDAF711
:10237000880F9695879597F90895990F0008550F3E
:10238000AA0BE0E8FEEF16161706E807F907C0F0FB
:1023900012161306E407F50798F0621B730B840B03
:1023A000950B39F40A2661F0232B242B252B21F4DD
:1023B00008950A2609F4A140A6958FEF811D811D7D
:1023C000089597F99F6780E870E060E008959FEFB7
:1023D00080EC089500240A941616170618060906BC
:1023E000089500240A94121613061406050608958B
:1023F000EECF50D0E8F3E894E0E0BB279F57F0F031
:102400002AED3FE049EC06C0EE0FBB0F661F771FB9
:10241000881F28F0B23A62077307840728F0B25A7F
:10242000620B730B840BE3959A9572F7803830F446
:102430009A95BB0F661F771F881FD2F79048BEC0C2
:10244000092E0394000C11F4882352F0BB0F40F4C2
:10245000BF2B11F460FF04C06F5F7F4F8F4F9F4F02
:102460000895EF93E0FF06C0A2EA2AED3FE049ECB1
:102470005FEB53DEE5DF0F90039401FC9058EAE335
:10248000F1E0A8C057FD9058440F551F59F05F3F29
:1024900071F04795880F97FB991F61F09F3F79F086
:1024A00087950895121613061406551FF2CF469508
:1024B000F1DF08C0161617061806991FF1CF86958A
:1024C0007105610508940895E894BB27662777276E
:1024D000CB0197F9089551DF08F48FEF08950BD0E1
:1024E000AFCF78DF28F07DDF18F0952309F069CFB2
:1024F0006ECF1124EACFC6DFA0F3959FD1F3950FDD
:1025000050E0551F629FF001729FBB27F00DB11D77
:10251000639FAA27F00DB11DAA1F649F6627B00D07
:10252000A11D661F829F2227B00DA11D621F739FF0
:10253000B00DA11D621F839FA00D611D221F749FFE
:102540003327A00D611D231F849F600D211D822F45
:10255000762F6A2F11249F5750408AF0E1F088238C
:102560004AF0EE0FFF1FBB1F661F771F881F915099
:102570005040A9F79E3F510570F023CFA6CF5F3F93
:10258000ECF3983EDCF3869577956795B795F795CC
:10259000E7959F5FC1F7FE2B880F911D9695879554
:1025A00097F908959F9325DF0F9007FCEE5F59CFB1
:1025B000E4DE880B990B08959F3F31F0915020F491
:1025C000879577956795B795880F911D969587950F
:1025D00097F908959F938F937F936F93FF93EF9352
:1025E0009B01AC017CDFEF91FF9105D02F913F91D2
:1025F0004F915F9174CFDF93CF931F930F93FF920F
:10260000EF92DF927B018C01689405C0DA2EEF0116
:1026100072DFFE01E894A591259135914591559180
:10262000AEF3EF017ADDFE019701A801DA9479F7A4
:10263000DF90EF90FF900F911F91CF91DF91089560
:10264000A1E21A2EAA1BBB1BFD010DC0AA1FBB1FB6
:10265000EE1FFF1FA217B307E407F50720F0A21B28
:10266000B30BE40BF50B661F771F881F991F1A9495
:1026700069F760957095809590959B01AC01BD01BF
:10268000CF010895EE0FFF1F0590F491E02D1994EE
:0C2690000790F691E02D1994F894FFCF0C
:10269C00090008000A000B008B088B088B088B08BC
:1026AC008B088B088B088B08000000003D0DAC0ECE
:1026BC00920CAB0C9D0C1C0D0D0A006E616E00692A
:0A26CC006E66006F7666002E0000B7
:020000023000CC
:10E000000D9489F10D94B2F10D94B2F10D94B2F129
:10E010000D94B2F10D94B2F10D94B2F10D94B2F1F0
:10E020000D94B2F10D94B2F10D94B2F10D94B2F1E0
:10E030000D94B2F10D94B2F10D94B2F10D94B2F1D0
:10E040000D94B2F10D94B2F10D94B2F10D94B2F1C0
:10E050000D94B2F10D94B2F10D94B2F10D94B2F1B0
:10E060000D94B2F10D94B2F10D94B2F10D94B2F1A0
:10E070000D94B2F10D94B2F10D94B2F10D94B2F190
:10E080000D94B2F10D94B2F10D94B2F10D94B2F180
:10E090000D94B2F10D94B2F10D94B2F10D94B2F170
:10E0A0000D94B2F10D94B2F10D94B2F10D94B2F160
:10E0B0000D94B2F10D94B2F10D94B2F10D94B2F150
:10E0C0000D94B2F10D94B2F10D94B2F10D94B2F140
:10E0D0000D94B2F10D94B2F10D94B2F10D94B2F130
:10E0E0000D94B2F141546D656761323536300041AF
:10E0F000726475696E6F206578706C6F72657220DE
:10E1000073746B3530305632206279204D4C530099
:10E11000426F6F746C6F616465723E004875683F52
:10E1200000436F6D70696C6564206F6E203D200048
:10E130004350552054797065202020203D20005FF9
:10E140005F4156525F415243485F5F3D2000415658
:10E1500052204C696243205665723D20004743437C
:10E160002056657273696F6E203D20004350552024
:10E1700049442020202020203D20004C6F7720663D
:10E18000757365202020203D20004869676820665F
:10E190007573652020203D200045787420667573D6
:10E1A00065202020203D20004C6F636B2066757336
:10E1B000652020203D20004D617220203720323024
:10E1C000313300312E362E3800342E332E350056A2
:10E1D00023202020414444522020206F7020636F70
:10E1E00064652020202020696E73747275637469E1
:10E1F0006F6E2061646472202020496E74657272B3
:10E20000757074006E6F20766563746F7200726A49
:10E210006D702020006A6D70200057686174207056
:10E220006F72743A00506F7274206E6F7420737541
:10E2300070706F72746564004D7573742062652030
:10E2400061206C6574746572002000577269747483
:10E25000696E672045450052656164696E672045B7
:10E26000450045452065727220636E743D00504F35
:10E27000525400303D5A65726F2061646472003FF1
:10E280003D43505520737461747300403D454550C3
:10E29000524F4D207465737400423D426C696E6B41
:10E2A000204C454400453D44756D70204545505215
:10E2B0004F4D00463D44756D7020464C415348001B
:10E2C000483D48656C70004C3D4C69737420492F83
:10E2D0004F20506F72747300513D51756974005234
:10E2E0003D44756D702052414D00563D73686F7707
:10E2F00020696E7465727275707420566563746FF0
:10E30000727300593D506F727420626C696E6B00BD
:10E310002A0011241FBECFEFD1E2DEBFCDBF01E046
:10E320000CBF12E0A0E0B2E0EEE1FDEF03E00BBFB6
:10E3300002C007900D92A030B107D9F712E0A0E01B
:10E34000B2E001C01D92AE30B107E1F70F9460F367
:10E350000D948DFE01E20EBF0FEF0DBF11241FBE05
:10E360000D9460F30D9400F020E030E040ED57E0B4
:10E3700005C0FA013197F1F72F5F3F4F2817390792
:10E38000C0F308959C01260F311DC901A0E0B0E043
:10E390002F5F3F4FABBFFC018791882361F08093D3
:10E3A000C6008091C00086FFFCCF8091C0008064D1
:10E3B0008093C000EACF08958DE08093C6008091DD
:10E3C000C00086FFFCCF8091C00080648093C000B5
:10E3D0008AE08093C6008091C00086FFFCCF8091C8
:10E3E000C00080648093C00008950F94C2F10F9420
:10E3F000DCF10895FC019081992359F09093C600B7
:10E400008091C00086FFFCCF8091C0008064809323
:10E41000C0003196992379F70895282F982F929567
:10E420009F70892F805D8A3308F0895F8093C600D2
:10E430008091C00086FFFCCF8091C00080648093F3
:10E44000C000822F8F70982F905D9A3308F0995FEB
:10E450009093C6008091C00086FFFCCF8091C000E1
:10E4600080648093C00008959C01FB01853691056E
:10E470001CF46330710594F0C90164E670E00F94F8
:10E480002EFE605D7F4F6093C6008091C00086FFC6
:10E49000FCCF8091C00080648093C0002B30310598
:10E4A00014F43297B4F0C90164E670E00F942EFEC4
:10E4B0006AE070E00F942EFE605D7F4F6093C600AF
:10E4C0008091C00086FFFCCF8091C0008064809363
:10E4D000C000C9016AE070E00F942EFEC0968093E0
:10E4E000C6008091C00086FFFCCF8091C000806490
:10E4F0008093C00008951F93182F8EE692EE60E07F
:10E500000F94C2F11093C6008091C00086FFFCCF2B
:10E510008091C00080648093C0000F94DCF11F9153
:10E5200008952F923F924F925F926F927F928F92B7
:10E530009F92AF92BF92CF92DF92EF92FF920F9392
:10E540001F93DF93CF93CDB7DEB762970FB6F894E2
:10E55000DEBF0FBECDBF382E622ECA01DB015C01CB
:10E560006D01772420E2222E2E010894411C511CBB
:10E570008BC081E0A81680E0B80681E0C80680E084
:10E58000D80628F0C601AA27BB270F940DF2BB2797
:10E59000AD2D9C2D8B2D0F940DF28A2D0F940DF225
:10E5A0002092C6008091C00086FFFCCF8091C00001
:10E5B00080648093C0009DE29093C6008091C0006B
:10E5C00086FFFCCF8091C00080648093C0002092C1
:10E5D000C6008091C00086FFFCCF8091C00080649F
:10E5E0008093C00019828601750188249924A1E0D6
:10E5F0003A1651F03A1620F0B2E03B1661F409C029
:10E600000BBFF701779007C0C7010F9477FE782EF4
:10E6100002C0F7017080872D0F940DF22092C60082
:10E620008091C00086FFFCCF8091C0008064809301
:10E63000C000872D8052F401EF70F0708F3520F408
:10E64000E40DF51D708204C0E40DF51D8EE280839B
:10E650000894E11CF11C011D111D0894811C911CE2
:10E6600090E18916910409F0C2CF80E190E0A0E02A
:10E67000B0E0A80EB91ECA1EDB1E198AC2010F9493
:10E68000FAF10F94DCF16A94662009F072CF629679
:10E690000FB6F894DEBF0FBECDBFCF91DF911F91B3
:10E6A0000F91FF90EF90DF90CF90BF90AF909F9031
:10E6B0008F907F906F905F904F903F902F90089534
:10E6C0002F923F924F925F926F927F928F929F9282
:10E6D000AF92BF92CF92DF92EF92FF920F931F9370
:10E6E000DF93CF93CDB7DEB7CD53D1400FB6F894BB
:10E6F000DEBF0FBECDBF01E20EBF0FEF0DBF94B75F
:10E70000F894A89514BE80916000886180936000A1
:10E7100010926000789493FF05C0E0910002F091A0
:10E7200001021995279A2F9A8091C00082608093E8
:10E73000C00080E18093C40088E18093C1000000A4
:10E74000EE24FF24870144E0A42EB12CCC24DD2448
:10E7500024C0C5010197F1F70894E11CF11C011DCB
:10E76000111D21E2E2162EE4F20620E0020720E06D
:10E77000120718F031E0C32ED12CC801B70127ECE5
:10E780003BE140E050E00F9441FE611571058105C9
:10E79000910519F485B1805885B98091C00087FD35
:10E7A00003C0C114D104A9F2A6014F5F5F4FC25E3E
:10E7B000DE4F59834883CE51D140C25EDE4F8881FF
:10E7C0009981CE51D140019711F00D9410FEC05D9A
:10E7D000DE4F19821882C053D14060E0C15DDE4F28
:10E7E0001882CF52D14088249924C35DDE4F19820C
:10E7F0001882CD52D140C05EDE4F188219821A8233
:10E800001B82C052D140CE5CDE4F188219821A8220
:10E810001B82C253D140EE24FF2487010BBFF701B6
:10E8200007911691C45CDE4F19830883CC53D14005
:10E830000D940BFEC25EDE4F28813981CE51D1404E
:10E840002130310509F52091C600C25EDE4F1982E4
:10E850001882CE51D14022C02F5F3F4F4F4F5F4FA4
:10E86000213082E138078AE7480780E0580780F0C6
:10E87000C45CDE4FE881F981CC53D140EF5FFF4F9C
:10E8800019F0EE27FF27099420E030E040E050E047
:10E890008091C00087FFE0CF2091C600C35DDE4FAE
:10E8A00048815981CD52D1404F5F5F4FC35DDE4FEC
:10E8B00059834883CD52D140213209F063C64A3092
:10E8C000510508F05FC60894811C911C53E0851621
:10E8D000910409F059C600E010E018C081E280936D
:10E8E000C6008091C00086FFFCCF8091C00080648C
:10E8F0008093C0002F5F3F4F2931310579F70F9486
:10E90000DCF10F5F1F4F0530110519F020E030E0FA
:10E91000E5CF10920A0210920B0210920C02109294
:10E920000D02109206021092070210920802109235
:10E930000902109202021092030210920402109235
:10E9400005028FEE90EE60E00F94F5F180E191EE1C
:10E9500060E00F94C2F18091C00087FFFCCF9091DE
:10E96000C600903608F09F759032B8F09093C600BC
:10E970008091C00086FFFCCF8091C00080648093AE
:10E98000C000A0E2A093C6008091C00086FFFCCF2B
:10E990008091C00080648093C000983409F4D7C18E
:10E9A0009934B8F4923409F459C1933458F490333B
:10E9B00019F1903308F4E3C59F33A1F1903409F0C5
:10E9C000DEC5BDC0953409F470C1963409F0D7C5D1
:10E9D00098C1923509F42BC2933538F49C3409F46C
:10E9E000F5C1913509F0CBC518C2963509F445C279
:10E9F000993509F0C4C567C483E792EE62E00F94CD
:10EA0000F5F110920602109207021092080210927D
:10EA1000090210920A0210920B0210920C0210923C
:10EA20000D0213C18FE792EE62E00F94F5F18FEEC5
:10EA300090EE60E00F94F5F181E291EE60E00F94CA
:10EA4000C2F187EB91EE60E00F94F5F180E391EE77
:10EA500060E00F94C2F184EE90EE60E00F94F5F167
:10EA60008FE391EE60E00F94C2F186E090E061E008
:10EA700070E00F9434F20F94DCF18DE591EE60E0DC
:10EA80000F94C2F189EC91EE60E00F94F5F18EE401
:10EA900091EE60E00F94C2F183EC91EE60E00F9490
:10EAA000F5F18CE691EE60E00F94C2F18EE10F94E7
:10EAB0000DF288E90F940DF281E00F940DF20F949E
:10EAC000DCF18BE791EE60E00F94C2F119E0E0E039
:10EAD000F0E010935700E4918E2F0F940DF20F94F5
:10EAE000DCF18AE891EE60E00F94C2F1E3E0F0E03F
:10EAF00010935700E4918E2F0F940DF20F94DCF1D8
:10EB000089E991EE60E00F94C2F1E2E0F0E0109349
:10EB10005700E4918E2F0F940DF20F94DCF188EAE8
:10EB200091EE60E00F94C2F1E1E0F0E01093570045
:10EB30001491812F0F940DF20F94DCF107CF8BE825
:10EB400092EE62E00F94F5F18BE492EE60E00F94A8
:10EB5000F5F10F94DCF100E010E019C0C8016F2D51
:10EB60000F947FFEFF2031F489E492EE60E00F9471
:10EB7000C2F10BC0F092C6008091C00086FFFCCFAE
:10EB80008091C00080648093C0000F5F1F4FC80158
:10EB900081519F41A0E0B0E0ABBFFC01F790BAE229
:10EBA000FB1621F0E2E000301E07C1F60F94DCF105
:10EBB0000F94DCF187E592EE60E00F94F5F10F948D
:10EBC000DCF1CC24DD2400E010E01EC0C8010F946D
:10EBD00077FEF82E882331F489E492EE60E00F94FA
:10EBE000C2F10BC08093C6008091C00086FFFCCFAD
:10EBF0008091C00080648093C000FE1419F00894D6
:10EC0000C11CD11C0F5F1F4FC80181519F41A0E063
:10EC1000B0E0ABBFFC01E790FAE2EF1621F022E092
:10EC20000030120799F60F94DCF10F94DCF182E6C4
:10EC300092EE60E00F94C2F1C60161E070E00F94C3
:10EC400034F20F94DCF10F94DCF110920202109276
:10EC50000302109204021092050278CE89E992EE26
:10EC600062E00F94F5F1279A2F9A16C02F9880E052
:10EC700090E0E0EDF7E03197F1F7019684369105E9
:10EC8000C1F72F9A80E090E0E0EDF7E03197F1F7DF
:10EC9000019684369105C1F78091C00087FFE6CFC9
:10ECA0008091C00087FFFCCF64C485EA92EE62E0E9
:10ECB0000F94F5F140910202509103026091040219
:10ECC0007091050281E020E10F9491F2809102029F
:10ECD00090910302A0910402B091050280509F4FD1
:10ECE000AF4FBF4F8093020290930302A0930402A0
:10ECF000B093050280509041A040B04008F426CE69
:10ED0000A4CF83EB92EE62E00F94F5F140910602FE
:10ED100050910702609108027091090280E020E1A1
:10ED20000F9491F28091060290910702A09108023F
:10ED3000B091090280509F4FAF4FBF4F80930602A2
:10ED400090930702A0930802B0930902FFCD80ECD4
:10ED500092EE62E00F94F5F183E792EE60E00F949B
:10ED6000F5F18FE792EE60E00F94F5F18BE892EE0B
:10ED700060E00F94F5F189E992EE60E00F94F5F10F
:10ED800085EA92EE60E00F94F5F183EB92EE60E09D
:10ED90000F94F5F180EC92EE60E00F94F5F187ECC2
:10EDA00092EE60E00F94F5F188ED92EE60E00F9442
:10EDB000F5F18FED92EE60E00F94F5F18AEE92EEB0
:10EDC00060E00F94F5F183E093EEBDCD87EC92EE19
:10EDD00062E00F94F5F181E40F947BF282E40F94EA
:10EDE0007BF283E40F947BF284E40F947BF285E45E
:10EDF0000F947BF286E40F947BF287E40F947BF20E
:10EE000088E40F947BF28AE40F947BF28BE40F94F6
:10EE10007BF28CE40F947BF299CD88ED92EE62E068
:10EE20000F94F5F1772473948824992409C48FED05
:10EE300092EE62E00F94F5F140910A0250910B02BC
:10EE400060910C0270910D0282E020E10F9491F22A
:10EE500080910A0290910B02A0910C02B0910D02D8
:10EE600080509F4FAF4FBF4F80930A0290930B0289
:10EE7000A0930C02B0930D0269CD8AEE92EE62E08F
:10EE80000F94F5F184EE90EE60E00F94F5F18FECC5
:10EE900091EE60E00F94F5F1662477244301CC5D98
:10EEA000DE4F19821882C452D140D401C301B695F5
:10EEB000A79597958795CA5DDE4F88839983AA8326
:10EEC000BB83C652D140CC5DDE4FA881B981C4520C
:10EED000D1401196CC5DDE4FB983A883C452D14096
:10EEE000CD0162E070E00F9434F2B0E2B093C6005E
:10EEF0008091C00086FFFCCF8091C0008064809329
:10EF0000C000EDE2E093C6008091C00086FFFCCF18
:10EF10008091C00080648093C000F0E2F093C6004E
:10EF20008091C00086FFFCCF8091C00080648093F8
:10EF3000C000CA5DDE4FE880F9800A811B81C6529D
:10EF4000D140BB27A12F902F8F2D0F940DF2CA5DBA
:10EF5000DE4F8881C652D1400F940DF2B0E2FB2EF5
:10EF6000F092C6008091C00086FFFCCF8091C00067
:10EF700080648093C0000DE30093C6008091C000C0
:10EF800086FFFCCF8091C00080648093C00010E2B7
:10EF90001093C6008091C00086FFFCCF8091C00016
:10EFA00080648093C0008BBEF3012791C65DDE4F65
:10EFB0002883CA52D140A22EBB24CC24DD2408943D
:10EFC000611C711C811C911C8BBEF3018791282E42
:10EFD0003324442455240894611C711C811C911C09
:10EFE0008BBEF3013791C55DDE4F3883CB52D140E4
:10EFF0000894611C711C811C911C8BBEF30147910C
:10F00000C45DDE4F4883CC52D140ADEFEA2EAFEF66
:10F01000FA2EAFEF0A2FAFEF1A2F6E0C7F1C801E57
:10F02000911E142D032DF22CEE24EA0CFB1C0C1D5A
:10F030001D1D0F940DF220E22093C6008091C000A8
:10F0400086FFFCCF8091C00080648093C000C65DC5
:10F05000DE4F8881CA52D1400F940DF230E23093D6
:10F06000C6008091C00086FFFCCF8091C000806404
:10F070008093C000C45DDE4F8881CC52D1400F9494
:10F080000DF240E24093C6008091C00086FFFCCFA5
:10F090008091C00080648093C000C55DDE4F888190
:10F0A000CB52D1400F940DF250E25093C6008091A4
:10F0B000C00086FFFCCF8091C00080648093C000B8
:10F0C0008FEFE8168FEFF80680E0080780E018075A
:10F0D00031F484E092EE60E00F94C2F1DFC0D80119
:10F0E000C7018070907CA070B0708050904CA040A0
:10F0F000B040D1F52FEF3FE340E050E0E222F322B1
:10F1000004231523CA5DDE4FA880B980CA80DB8046
:10F11000C652D140AE0CBF1CC01ED11EAA0CBB1CD7
:10F12000CC1CDD1C8EE092EE60E00F94C2F1BB2798
:10F13000A12F902F8F2D0F940DF28E2D0F940DF285
:10F1400030E23093C6008091C00086FFFCCF8091F2
:10F15000C00080648093C0004EE34093C60080915D
:10F16000C00086FFFCCF87C08EE09EEFA0E0B0E03D
:10F17000E822F9220A231B239CE0E91694E9F90608
:10F1800090E0090790E0190709F088C0C45DDE4FE0
:10F19000A881CC52D140EA2EFF2400E010E0102FCD
:10F1A0000F2DFE2CEE24C55DDE4FB881CB52D14031
:10F1B000EB0EF11C011D111DD601C501817090706F
:10F1C000A070B070DC0199278827E80EF91E0A1F8D
:10F1D0001B1F20EF30E040E050E0A222B322C42207
:10F1E000D52241E1AA0CBB1CCC1CDD1C4A95D1F7F1
:10F1F000EA0CFB1C0C1D1D1D81E090E0A0E0B0E0BE
:10F20000282239224A225B2235E1220C331C441C7D
:10F21000551C3A95D1F7E20CF31C041D151D57013E
:10F220006801AA0CBB1CCC1CDD1C85E192EE60E0E1
:10F230000F94C2F1C801AA27BB270F940DF2BB2778
:10F24000A12F902F8F2D0F940DF28E2D0F940DF274
:10F2500090E29093C6008091C00086FFFCCF809121
:10F26000C00080648093C000AEE3A093C60080918C
:10F27000C00086FFFCCF8091C00080648093C000F6
:10F28000C601AA27BB270F940DF2BB27AD2D9C2DDD
:10F290008B2D0F940DF28A2D0F940DF20F94DCF14B
:10F2A000CC5DDE4FE881F981C452D140F99709F471
:10F2B0004DCBF4E0EF2EF12C012D112D6E0C7F1CA7
:10F2C000801E911EF2CD83E093EE62E00F94F5F183
:10F2D0008AE192EE60E00F94C2F18091C00087FF56
:10F2E000FCCF1091C6001F751093C6008091C0001E
:10F2F00086FFFCCF8091C00080648093C0000F9493
:10F30000DCF1812F81548A3108F036C1163409F4BA
:10F3100095C0173490F4133409F44EC0143430F40B
:10F320001134F1F0123409F01DC130C0143409F465
:10F3300059C0153409F016C16BC01A3409F4C4C0A1
:10F340001B3438F4173409F48FC0183409F00AC19B
:10F35000A1C01B3409F4D2C01C3409F003C1E8C0B9
:10F360008FEF81B90DC082B1809582B980E090E0C5
:10F37000E0EDF7E03197F1F70196883C9105C1F790
:10F380008091C00087FFEFCF12B8EFC08FEF84B934
:10F390000DC085B1809585B980E090E0E0EDF7E0A3
:10F3A0003197F1F70196883C9105C1F78091C00033
:10F3B00087FFEFCF15B8D9C08FEF87B90DC088B1DF
:10F3C000809588B980E090E0E0EDF7E03197F1F7C3
:10F3D0000196883C9105C1F78091C00087FFEFCF6F
:10F3E00018B8C3C08FEF8AB90DC08BB180958BB9A7
:10F3F00080E090E0E0EDF7E03197F1F70196883C8E
:10F400009105C1F78091C00087FFEFCF1BB8ADC059
:10F410008FEF8DB90DC08EB180958EB980E090E0F0
:10F42000E0EDF7E03197F1F70196883C9105C1F7DF
:10F430008091C00087FFEFCF1EB897C08FEF80BBD1
:10F440000DC081B3809581BB80E090E0E0EDF7E0F6
:10F450003197F1F70196883C9105C1F78091C00082
:10F4600087FFEFCF11BA81C08FEF83BB0DC084B38C
:10F47000809584BB80E090E0E0EDF7E03197F1F714
:10F480000196883C9105C1F78091C00087FFEFCFBE
:10F4900014BA6BC08FEF809301010FC080910201FD
:10F4A00080958093020180E090E0E0EDF7E03197F5
:10F4B000F1F70196883C9105C1F78091C00087FF64
:10F4C000EDCF1092020151C08FEF809304010FC065
:10F4D0008091050180958093050180E090E0E0ED4A
:10F4E000F7E03197F1F70196883C9105C1F78091DB
:10F4F000C00087FFEDCF1092050137C08FEF8093DA
:10F5000007010FC08091080180958093080180E079
:10F5100090E0E0EDF7E03197F1F70196883C910536
:10F52000C1F78091C00087FFEDCF109208011DC088
:10F530008FEF80930A010FC080910B01809580931B
:10F540000B0180E090E0E0EDF7E03197F1F70196F4
:10F55000883C9105C1F78091C00087FFEDCF1092E4
:10F560000B0103C085E292EEEEC98091C00087FFD7
:10F57000FCCF8091C600EAC988E392EEE4C98CE131
:10F5800091EEE1C988249924933011F1943028F444
:10F59000913089F09230B8F408C0953061F195301F
:10F5A000F0F0963009F048C043C02B3109F042C951
:10F5B00091E06BE13FC96227C15DDE4F2883CF52E6
:10F5C000D14092E037C9B22FA0E0622793E032C960
:10F5D000822F90E0A82BB92B622794E02BC92E3004
:10F5E00009F039C3622795E0C05DDE4F19821882A9
:10F5F000C053D1401FC9E1E0F0E0EC0FFD1FC05D3A
:10F60000DE4F08811981C053D140E00FF11F2083E4
:10F610000F5F1F4FC05DDE4F19830883C053D14079
:10F6200062270A171B0709F005C9D80196E002C92D
:10F63000261709F010C303C0973009F0FBC87724E0
:10F640009981933109F412C19431C8F4963009F4C8
:10F65000D8C0973050F4923009F406C1933009F4C1
:10F660006DC0913009F059C253C0913109F477C08F
:10F67000923108F0BBC0903109F04FC2F5C098310B
:10F6800009F487C0993150F4953109F4EFC09531F0
:10F6900008F4C6C1963109F040C2C2C19A3109F4DA
:10F6A0006CC09A3108F491C09B3109F45BC09D3164
:10F6B00009F033C29D81903359F48F81882311F46E
:10F6C0009EE11CC0813011F091E018C098E916C08D
:10F6D000892F807591F0903539F4E0E0F0E089E011
:10F6E0008093570094910AC0983539F4E3E0F0E034
:10F6F00089E080935700949101C090E01A821B82A8
:10F700008D818C831D829E831F8227E030E009C299
:10F710001A8288E08B8381E48C8386E58D8382E581
:10F720008E8389E48F8383E5888780E589878FE5E9
:10F730008A8782E38B872BE030E0F3C18A818139AD
:10F7400041F0823941F0803911F48FE005C080E04A
:10F7500003C082E001C08AE01A828B8344C0772410
:10F76000739482C08D81882311F48EE12CC0813086
:10F7700011F081E028C088E926C01A82E1E0F0E0BB
:10F7800089E08093570084918B831C8224E030E0D1
:10F79000C8C18B81803589F48C81883039F4E2E0EE
:10F7A000F0E089E08093570084910DC0E0E0F0E044
:10F7B00089E080935700849106C0E3E0F0E089E09F
:10F7C0008093570084911A82DFCF8D81836C99E0FA
:10F7D000E1E0F0E0082E90935700E89507B600FCB2
:10F7E000FDCF1A821B8223E030E09BC180EC8A832C
:10F7F000CE5CDE4F188219821A821B82C253D1401E
:10F800008EC18A8190E0A0E0B0E0582F44273327D2
:10F8100022278B8190E0A0E0B0E0DC0199278827C7
:10F82000282B392B4A2B5B2B8D8190E0A0E0B0E098
:10F83000282B392B4A2B5B2B8C8190E0A0E0B0E089
:10F84000BA2FA92F982F8827282B392B4A2B5B2BCF
:10F85000220F331F441F551FC05EDE4F288339839C
:10F860004A835B83C052D1401A8259C13A81C95C34
:10F87000DE4F3883C753D140CA5CDE4F1882C6536F
:10F88000D1408B81C82EDD24CA5CDE4F488159816E
:10F89000C653D140C42AD52A933109F082C0CE5C28
:10F8A000DE4F88819981AA81BB81C253D1408050AB
:10F8B000904CA340B04030F583E0CE5CDE4FE88052
:10F8C000F9800A811B81C253D140F70100935B008C
:10F8D00080935700E89507B600FCFDCFCE5CDE4F65
:10F8E000088119812A813B81C253D14000501F4FAA
:10F8F0002F4F3F4FCE5CDE4F088319832A833B8313
:10F90000C253D140C05EDE4F488159816A817B81FC
:10F91000C052D140DE011B9631E08C9111962C91A2
:10F9200011971296C75CDE4F2883C953D140C85C3B
:10F93000DE4F1882C853D14090E0C85CDE4FE881AA
:10F94000F981C853D1408E2B9F2B0C01FA01609393
:10F950005B0030935700E89511244E5F5F4F6F4F67
:10F960007F4F0EEFE02E0FEFF02ECE0CDF1CC114F8
:10F97000D10499F685E0C05EDE4F088119812A81A5
:10F980003B81C052D140F80120935B008093570027
:10F99000E89507B600FCFDCF81E180935700E8951C
:10F9A00035C0C05EDE4F88819981AA81BB81C0527B
:10F9B000D140B695A795979587957C018601ABE0D8
:10F9C000AA2EB12CAC0EBD1E0BC0D5016D915D01F0
:10F9D000C7010F947FFE0894E11CF11C01501040F8
:10F9E0000115110591F7A60160E070E0440F551F65
:10F9F000661F771FC05EDE4FE880F9800A811B8199
:10FA0000C052D1404E0D5F1D601F711F1A82C05E33
:10FA1000DE4F488359836A837B83C052D1407FC0C5
:10FA2000FA80C55CDE4FF882CB53D140C65CDE4F16
:10FA30001882CA53D1408B81C82EDD24C65CDE4FAC
:10FA400008811981CA53D140C02AD12A1A828981DA
:10FA5000BE016D5F7F4F843121F59601C05EDE4FA0
:10FA6000E880F9800A811B81C052D1400BBFF701A9
:10FA700087919691DB018C9311969C936E5F7F4FDB
:10FA8000D801C7010296A11DB11DC05EDE4F88835B
:10FA90009983AA83BB83C052D14022503040F1F6F3
:10FAA00036C0C05EDE4F288139814A815B81C052F9
:10FAB000D1400894C108D108760100E010E0089414
:10FAC000C11CD11C0894E11CF11C011D111DE20E8A
:10FAD000F31E041F151F21BDBB27A52F942F832FB5
:10FAE00082BD2F5F3F4F4F4F5F4FF89A80B5DB01CC
:10FAF0008D93BD012E153F054007510761F7C05E8C
:10FB0000DE4F288339834A835B83C052D1409601FC
:10FB10002D5F3F4FFB01108204C080EC8A8322E0FE
:10FB200030E08BE18093C6008091C00086FFFCCF5F
:10FB30008091C00080648093C000C15DDE4FF88179
:10FB4000CF52D140F093C6008091C00086FFFCCF19
:10FB50008091C00080648093C000432F3093C60022
:10FB60008091C00086FFFCCF8091C00080648093AC
:10FB7000C000922F2093C6008091C00086FFFCCF6A
:10FB80008091C00080648093C0008EE08093C600A6
:10FB90008091C00086FFFCCF8091C000806480937C
:10FBA000C00065E1C15DDE4FE880CF52D1406E25D7
:10FBB00069276427FE01319610C090819093C6009A
:10FBC0008091C00086FFFCCF31968091C000806498
:10FBD0008093C0006927215030402115310569F715
:10FBE0006093C6008091C00086FFFCCF8091C0006A
:10FBF00080648093C00085B1805885B9772081F4F6
:10FC0000C15DDE4F0881CF52D1400F5FC15DDE4F35
:10FC10000883CF52D14090E0A0E0B0E00D941AF4F8
:10FC200027982F9880E090E020ED37E0F901319798
:10FC3000F1F7019684369105C9F700008091C00064
:10FC40008D7F8093C00081E180935700E895EE2777
:10FC5000FF270994FFCF90E00D941AF497FB092E2B
:10FC600007260AD077FD04D02ED006D000201AF443
:10FC7000709561957F4F0895F6F7909581959F4F08
:10FC80000895A1E21A2EAA1BBB1BFD010DC0AA1FDD
:10FC9000BB1FEE1FFF1FA217B307E407F50720F0F5
:10FCA000A21BB30BE40BF50B661F771F881F991F70
:10FCB0001A9469F760957095809590959B01AC01B9
:10FCC000BD01CF010895AA1BBB1B51E107C0AA1FAC
:10FCD000BB1FA617B70710F0A61BB70B881F991FED
:10FCE0005A95A9F780959095BC01CD010895F99991
:10FCF000FECF92BD81BDF89A992780B50895262F31
:10FD0000F999FECF1FBA92BD81BD20BD0FB6F89400
:0EFD1000FA9AF99A0FBE01960895F894FFCF63
:040000033000E000E9
:00000001FF
